:020000040800F2
:10000000980800202D030008650300086703000816
:1000100000000000000000000000000000000000E0
:100020000000000000000000000000006B0300085A
:1000300000000000000000006D0300086F030008CE
:100040003F0300083F0300088D0300083F0300083A
:100050003F0300083F0300083F0300087103000846
:100060003F0300083F0300083F0300083F03000868
:100070003F0300083F0300083F0300083F03000858
:100080003F0300083F030008000000004F0D000878
:100090003F0300083F0300083F0300083F03000838
:1000A0003F0300083F0300083F030008E90A000877
:1000B000FF0B0008000000003F03000800000000E4
:1000C00000F002F800F04EF80CA030C808382418F0
:1000D0002D18A246671EAB4654465D46AC4201D180
:1000E00000F040F87E460F3E0FCCB6460126334264
:1000F00000D0FB1AA246AB46334318472C730000CE
:100100004C7300000023002400250026103A01D380
:1001100078C1FBD8520700D330C100D50B607047BF
:1001200010B5642902D104F08FFC10BD752902D1ED
:1001300004F08AFC10BD782902D104F0BBFC10BD8C
:10014000632902D104F0BAFE10BD732902D104F074
:10015000BDFE10BD002010BD1FB5C046C0461FBD6E
:1001600010B510BD04F0FAFE1146FFF7F5FF00F0E0
:10017000E7FA04F012FF03B4FFF7F2FF03BC00F04C
:100180005BFC00000CB500200190009011205F493D
:1001900008605F4840685E494860084640684860BB
:1001A000084640683F210904884359494860084689
:1001B00040680521C904084355494860084600685D
:1001C0000121090608435249086000BF50480068F1
:1001D0000121490608400028F8D04D4840688008B1
:1001E00080004B494860084640680221084348495E
:1001F000486000BF464840680C2108400828F9D1F3
:100200000CBD10B542480068012108434049086010
:10021000084640683F4908403D4948600846006834
:100220003D4908403A4908600846006801218904B0
:10023000884337490860084640683F2109048843DD
:10024000334948600846C06A00090001C862084690
:10025000006BFF21543188432D4908630846406BE9
:1002600040084000486300208860FFF78BFF10BD06
:10027000F8B50025002400260027254840680C21F9
:1002800008400546002D04D0042D06D0082D2AD1A3
:1002900007E022482249086029E0204820490860F8
:1002A00025E01B4840680F2189040840044618488F
:1002B00040680121090408400646A00C841C002E59
:1002C00004D118486043164908600BE01048C06A22
:1002D0000007000F471C3946104804F0DBFC604360
:1002E0000F49086003E00D480D49086000BF00BFDA
:1002F00007484068F021084000090B490D5C084898
:100300000068E84006490860F8BD0000002002408F
:10031000001002400CB8FFF8FFFFF6FE00127A0052
:100320000000002000093D0004000020074880472D
:1003300007480047FEE7FEE7FEE7FEE7FEE7FEE7C9
:1003400004480549054A064B7047000003020008AF
:10035000C10000089802002098080020980400209E
:1003600098040020704700BFFEE770477047704751
:1003700010B50120800202F034FC002805D00120D5
:1003800003490870800202F03DFC10BD7047000078
:100390001400002008B5FA4800F040FFF9A0F84B1F
:1003A0001F2200210090102001F0A7F9F9A0F44BC2
:1003B0001F22D20214210090102001F09EF93A234E
:1003C000712226210F2001F05DF9F6A0EC4BF94ACD
:1003D00028210090102001F090F958237122442127
:1003E0000F2001F014F9F4A0E54B1F2246210090E4
:1003F000102001F082F97623712262210F2001F092
:1004000006F9F1A0DE4B1F22D202642100901020D9
:1004100001F073F9F0A0DA4B1F2278210090102030
:1004200001F06BF9F0A0D64B1F22D2028C21009074
:10043000102001F062F97D20C00000F0DAFA7D2082
:10044000C00000F0D6FAEC484079CD4B1F22D20212
:100450007D210090642001F010FB7D20C00000F0A1
:10046000C8FAE5480079C64B1F22D2027D210090D0
:10047000642001F002FB7D20C00000F0BAFADE48E3
:10048000C078BF4B1F22D2027D210090642001F072
:10049000F4FA7D20C00000F0ACFAD7488078B84B61
:1004A0001F22D2027D210090642001F0E6FA7D2017
:1004B000C00000F09EFAD0484078B14B1F22D20213
:1004C0007D210090642001F0D8FA7D20C00000F06A
:1004D00090FAC9480078AA4B1F22D2027D210090D1
:1004E000642001F0CAFA08BDF8B50024A44800F061
:1004F00095FEC2A0A24B1F22D20214210090102010
:1005000001F0FBF87D20C00000F073FA9C4800F079
:1005100085FE00BF1DE00321204604F0C5FB40011D
:100520001E3085B20321204604F0BEFB2820414343
:100530008EB2B149601C085C914B1F22D202294641
:100540000090304601F099FA642000F052FA601CE5
:10055000C4B20A2CDFDB7D20C00000F04AFAF8BDEF
:1005600038B52824864800F059FEA7A0844B1F22E6
:100570000A210090102001F0C0F87D20C00000F09A
:1005800038FA8C481F3000F049FEA4A0894B1F3375
:100590001F22D2020A210090204601F0AEF8A7A047
:1005A000844B1F331F22D2021E210090204601F0EF
:1005B000A4F8AAA07F4B1F331F22322100902046AF
:1005C00001F061F9ADA07B4B1F333F225201642142
:1005D0000090204601F091F8AEA0764B1F22D20287
:1005E00078210090204601F088F8B1A0714B1F22BD
:1005F000D2028C210090204601F07FF8B3A06D4B11
:100600001F22D202A0210090204601F076F8B5A06A
:10061000684B1F331F22B4210090204601F06DF873
:10062000B54800F0E6F938BD38B50224544800F06A
:10063000F5FDB2A0524B1F220A210090142001F0B8
:100640005CF87D20C00000F0D4F973E059481F30F9
:1006500000F0E4FD7D20C00000F0CBF9012149024B
:10066000A94802F084FB0121081AC5B22A464902B2
:10067000A54802F08CFB002000F0D0FD7D20C000DA
:1006800000F0B7F9FF2101319F4802F070FB012112
:10069000081AC5B22A4609029B4802F078FB1F20BF
:1006A000C00200F0BBFD7D20C00000F0A2F90121D6
:1006B0004902954802F05BFB0121081AC5B22A469F
:1006C0004902914802F063FB3F20400100F0A6FD83
:1006D0007D20C00000F08DF9FF2101318A4802F031
:1006E00046FB0121081AC5B22A460902864802F0D3
:1006F0004EFB1F2000F092FD7D20C00000F079F934
:1007000001214902804802F032FB0121081AC5B2DA
:100710002A4649027C4802F03AFBFF2101317A481F
:1007200002F025FB0121081AC5B22A4609027648C3
:1007300002F02DFB2046611ECCB2002886D138BDC8
:1007400008B5FFF75EFD00F021F900F0AFFA00F008
:10075000CDFB4B20C00100F009FA6C496C480068E1
:1007600004F098FAC4B26B484168204688471148A3
:100770001F3000F053FD0421674802F004FBF8E04D
:100780007DEF0000C8ABB6AFB5E7D7D3BCBCCAF5A8
:1007900000000000D2BABEA7B2E2CAD4B3CCD0F2F5
:1007A00000000000D1D5C9ABCCEEB3E4B2E2CAD4AC
:1007B00000000000E0FF0000CEC4D7D6CFD4CABEF0
:1007C000B2E2CAD400000000CDBCC6ACCFD4CABED1
:1007D000B2E2CAD40000000053313A4D6F76652E64
:1007E000202020200000000053323A53656C6C65D5
:1007F0006374202000000000150000204E756D205D
:100800005465737400000000202020CEC4D7D6CFDA
:10081000D4CABEB2E2CAD42020200000202020206A
:1008200020C8ABB6AFB5E7D7D3BCBCCAF5D3D0CFE1
:10083000DEB9ABCBBE2020202020200020202020AD
:100840002020202020514474656368202E2C4C54B5
:1008500044202020202020202020000020202020B4
:1008600020202020202020BBB6D3ADC4FA20202099
:1008700020202020202020202000000020202020D8
:1008800020C8ABB3CCBCBCCAF5D6A7B3D6202020B9
:1008900020200000687474703A2F2F7164746563AF
:1008A000682E74616F62616F2E636F6D00000000CF
:1008B000452D4D61696C3A5144746563683230303E
:1008C0003840676D61696C2E636F6D00BCBCCAF502
:1008D000BDBBC1F7C8BA3A3332343832383031365A
:1008E0000000000054656C3A313539383933313302
:1008F0003530382000000000B80B0000436F6C6FEB
:1009000072205465737400000008004840420F00D4
:10091000000000206800002000040048FFF73AFDB6
:10092000FFF782FEFFF7E0FDFFF71AFE0121490203
:10093000104802F01CFA0121081AC4B222464902EA
:100940000C4802F024FA0C4800F068FC7D20C0003E
:1009500000F04FF8084800F061FC08A00A4B1F2285
:10096000322100900A2000F0C8FE7D20C00000F077
:1009700040F8D3E700080048FFFF0000B2E2CAD405
:10098000B3C9B9A62E0000007DEF000010B5BD4927
:10099000BD48006804F07EF9BC490870084600783C
:1009A0007D21C9004843BA49088010BD0146B74AB5
:1009B00012784A43B74B5A6100229A611A4612696B
:1009C00001231A43B34B1A6100BFB24A1069C20730
:1009D000D20F002A04D0012212040240002AF4D0CF
:1009E000AC4A126952085200AA4B1A6100229A615D
:1009F00070470146A64A12884A43A64B5A61002214
:100A00009A611A46126901231A43A24B1A6100BF68
:100A1000A04A1069C207D20F002A04D00122120492
:100A20000240002AF4D09B4A126952085200994BA6
:100A30001A6100229A617047014600BF704700BFEB
:100A4000954AD26940231A40002AF9D0C2B2924B8B
:100A500020331A81704710B58AB004468F4803F0DE
:100A6000DDFC0121480402F099FC0121880302F019
:100A7000A3FC01220921C80602F091F901220A21F2
:100A80000920C00602F08BF90320400208900221E1
:100A900008A80171002181710321417108A9092071
:100AA000C00602F0FBF81B2168460177032141775D
:100AB0000121817707A802F09FF90194002002909C
:100AC0000390049006900C20059001A9734803F050
:100AD000C1FC01227249714803F0E8FE01216F4810
:100AE00003F04FFD0AB010BD10B56D496B4803F01F
:100AF0001CFF002839D0694803F0FEFDC4B26948E4
:100B000000880121C903084000282ED165480088CB
:100B10004910084000280DD00A2C03D0002061495C
:100B2000088022E05F4800880121C90308435D492D
:100B300008801AE00D2C07D15A480088012189034A
:100B400008435849088010E0564800888004800C0B
:100B500055490C5453480088401C524908800846A7
:100B60000088C72801DD0020088010BD10B58AB0BC
:100B70000446494803F052FC0121480402F00EFCEF
:100B80000121480402F026FC012202210920C006AE
:100B900002F005F9012203210920C00602F0FFF846
:100BA0000C200890022108A8017100218171032105
:100BB000417108A90920C00602F070F81C2168469E
:100BC0000177032141770121817707A802F014F909
:100BD0000194002002900390049006900C20059050
:100BE00001A92D4803F036FC01222D492A4803F0C3
:100BF0005DFE0121284803F0C4FC0AB010BD10B509
:100C00002749254803F091FE002839D0224803F0F7
:100C100073FDC4B2234800880121C903084000289D
:100C20002ED1204800884910084000280DD00A2CF9
:100C300003D000201B49088022E01A4800880121C7
:100C4000C9030843174908801AE00D2C07D115483D
:100C500000880121890308431249088010E01148E7
:100C600000888004800C10490C540E480088401CF9
:100C70000C49088008460088C72801DD002008804C
:100C800010BD00000048E801000000202000002006
:100C90002200002000E000E0004400400038014055
:100CA0000501050024000020640100201CB501217D
:100CB000C80402F073FB0320000200900121684683
:100CC000017100218171032141716946044801F0DD
:100CD000E5FF03210902024802F055F81CBD00009F
:100CE0000008004838B504460D46204802F0B0FD23
:100CF0000121080202F06EFB1321684601700021F9
:100D000041700121817002F077F819491948006893
:100D100003F0C0FF401E18490880012208460188E0
:100D2000124802F031FE1548446005800020134946
:100D3000488008810D4802F0F1FD012241210B4855
:100D400003F064FA0121094802F06DFE38BD10B5C8
:100D50000121064803F072FA002801D001F0C6FB19
:100D60000121024803F07DFA10BD00000020004080
:100D7000808D5B00000000202C0000202C02002051
:100D800010B5044600BF0221FC4802F025FD0028F2
:100D9000F9D02146F94802F0BAFC00BF0121F7481A
:100DA00002F01AFD0028F9D0F44802F0B7FC10BD9B
:100DB00000B587B001210B20400402F0EFFA0121B9
:100DC000080302F0F9FA0420059001216846017633
:100DD000032141760021817605A9E94801F05EFFF3
:100DE0000421E74801F0CFFF072005900121684664
:100DF0000176032141760021817605A9E14801F0C1
:100E00004DFF0721DF4801F0BEFFE02005900221E1
:100E10006846017603214176002181760121C17661
:100E200005A90920C00601F039FF0022052109208B
:100E3000C00601F0B4FF002206210920C00601F01F
:100E4000AEFF002207210920C00601F0A8FF002103
:100E500068460180FF210531418007210902818018
:100E60000221C1800121018149024181002181814A
:100E7000C181072101826946C04802F036FB012189
:100E80000903BE4802F004FC0121BC4802F0CFFB7C
:100E90000121BC4801F079FF07B000BD10B5044640
:100EA0000221B84801F071FF2046FFF769FF10BD2D
:100EB00010B504460221B34801F065FF2046FFF754
:100EC0005FFF10BD70B505460C462846FFF7F0FFE2
:100ED0002046FFF7EDFF70BD70B505460C4628466D
:100EE000FFF7DCFF2046FFF7D9FF70BD10B5FFF715
:100EF0005FFF0421A24801F048FF6420FFF779FD5D
:100F000004219F4801F03FFF3220FFF772FD1120BE
:100F1000FFF7C4FF0020FFF7CBFFCF20FFF7BEFF96
:100F20000020FFF7C5FFC120FFF7C2FF3020FFF709
:100F3000BFFFED20FFF7B2FF6420FFF7B9FF0320EA
:100F4000FFF7B6FF1220FFF7B3FF8120FFF7B0FFD6
:100F5000E820FFF7A3FF8520FFF7AAFF1120FFF786
:100F6000A7FF7820FFF7A4FFF620FFF797FF0120E7
:100F7000FFF79EFF3020FFF79BFF0020FFF798FF51
:100F8000CB20FFF78BFF3920FFF792FF2C20FFF7D4
:100F90008FFF0020FFF78CFF3420FFF789FF05202B
:100FA000FFF786FFF720FFF779FF2020FFF780FF8C
:100FB000EA20FFF773FF0020FFF77AFF0020FFF71A
:100FC00077FFC020FFF76AFF2020FFF771FFC120E5
:100FD000FFF764FF1120FFF76BFFC520FFF75EFFEF
:100FE0003120FFF765FF3C20FFF762FFC720FFF7C6
:100FF00055FFA920FFF75CFF3A20FFF74FFF552070
:10100000FFF756FF3620FFF749FFE820FFF750FFB4
:10101000B120FFF743FF0020FFF74AFF1820FFF73A
:1010200047FFB420FFF73AFF0020FFF741FF002001
:10103000FFF73EFFF220FFF731FF0020FFF738FFF8
:101040002620FFF72BFF0120FFF732FFE020FFF7FC
:1010500025FF0F20FFF72CFF1720FFF729FF142093
:10106000FFF726FF0920FFF723FF0C20FFF720FFE3
:101070000620FFF71DFF4320FFF71AFF7520FFF73B
:1010800017FF3620FFF714FF0820FFF711FF13208A
:10109000FFF70EFF0520FFF70BFF1020FFF708FFFB
:1010A0000B20FFF705FF0820FFF702FFE120FFF705
:1010B000F5FE0020FFF7FCFE1F20FFF7F9FE2320BE
:1010C000FFF7F6FE0320FFF7F3FE0E20FFF7F0FE1A
:1010D0000420FFF7EDFE3920FFF7EAFE2520FFF799
:1010E000E7FE4D20FFF7E4FE0620FFF7E1FE0D20AE
:1010F000FFF7DEFE0B20FFF7DBFE3320FFF7D8FE05
:101100003720FFF7D5FE0F20FFF7D2FE2920FFF78B
:10111000C5FE10BDF8B504460D4616461F462A20EA
:10112000FFF7BCFEE1B22012FFF7CCFEF1B23012A5
:10113000FFF7C8FE2B20FFF7B1FEE9B22812FFF738
:10114000C1FEF9B23812FFF7BDFE2C20FFF7A6FE54
:10115000F8BD70B504460D462A20FFF79FFEE1B2A8
:101160002012FFF7AFFE2B20FFF798FEE9B22812FE
:10117000FFF7A8FE2C20FFF791FE70BD0030014064
:10118000000C00480004004870B505460E461446A1
:1011900031462846FFF7DDFF2012FFF789FEE0B257
:1011A000FFF786FE70BDF3B585B005462846069963
:1011B000FFF7CFFF0121FE4801F0E7FD2E20FFF7EA
:1011C0006DFE0221FA4801F0DEFD0221F84801F02F
:1011D000DCFDFF20FFF7D4FDFF20FFF7D1FD0490D9
:1011E000FF20FFF7CDFD0446FF20FFF7C9FD0646AF
:1011F0000121EF4801F0C7FD04984006000E03905E
:1012000002947006070E03980002029C61010843D5
:10121000F91008430190019807B0F0BD70B504467D
:10122000EF23FF22403200210846FFF773FF02211F
:10123000DF4801F0A8FD00250DE0002606E02012A1
:10124000FFF79EFDE0B2FFF79BFD761CFF204130CB
:101250008642F4D36D1CF02DEFD370BDFFB581B085
:1012600006460F460024039D039D68000321081ACB
:1012700000904AE07A1991B2321990B2049AFFF7BD
:1012800083FF7A1991B2321B90B2049AFFF77CFF68
:101290007A1B91B2321990B2049AFFF775FF7A1B4C
:1012A00091B2321B90B2049AFFF76EFF3A1991B2D5
:1012B000721990B2049AFFF767FF3A1991B2721B44
:1012C00090B2049AFFF760FF3A1B91B2721990B284
:1012D000049AFFF759FF3A1B91B2721B90B2049A1D
:1012E000FFF752FF0098002805DAA10000980818BF
:1012F000801D009007E0601B8100009808180A30EC
:101300000090681E85B2601C84B2AC42B2DBAC4275
:1013100037D17A1991B2321990B2049AFFF734FF9B
:101320007A1991B2321990B2049AFFF72DFF7A1B05
:1013300091B2321990B2049AFFF726FF7A1B91B24C
:10134000321B90B2049AFFF71FFF3A1991B272193B
:1013500090B2049AFFF718FF3A1991B2721B90B23B
:10136000049AFFF711FF3A1B91B2721990B2049AD6
:10137000FFF70AFF3A1B91B2721B90B2049AFFF773
:1013800003FF05B0F0BDFFB585B006990598FFF7DE
:10139000E0FE05990798451A06990898461A002D07
:1013A00002DB0120029003E00020C04302906D4266
:1013B000002E02DB0120019003E00020C0430190D9
:1013C00076426800049070000390B5421CDD0398DB
:1013D000441B002715E00E9A06990598FFF7D4FEE6
:1013E000002C06DB0498241A01990698401880B254
:1013F00006900398241802990598401880B2059029
:101400007F1CAF42E7DD1BE00498841B002715E03A
:101410000E9A06990598FFF7B7FE002C06DB039895
:10142000241A02990598401880B20590049824184F
:1014300001990698401880B206907F1CB742E7DDFC
:1014400009B0F0BDFEB505460C4616461F46594884
:101450000090A81982B2234621462846FFF793FF41
:101460005548631CDB199BB201930090AB195B1EBE
:101470009AB2631C99B2AB195B1E98B2019BFFF73D
:1014800082FF4D480090E01983B2A81982B2E0199A
:1014900081B22846FFF777FF46480090E01983B2F3
:1014A0002A4621462846FFF76EFF08980090601CE8
:1014B000C019801E83B2681C8019801E82B2601C15
:1014C00081B2681C80B20190FFF75DFFFEBDFEB5E2
:1014D00005460C4616461F46089800282CD135486C
:1014E0000090A81982B2234621462846FFF74BFFF9
:1014F00031480090601CC01983B2A819401E82B206
:10150000601C81B2A819401E80B20190FFF73BFF1A
:1015100029480090E01983B2A81982B2E01981B27B
:101520002846FFF730FF23480090E01983B22A468F
:1015300021462846FFF727FF089801282DD11E488D
:101540000090A81982B2234621462846FFF71BFFC8
:101550001848611CC9198BB2A919491E8AB2611CAD
:1015600089B201910090A919491E88B20199FFF72B
:101570000AFF10480090E01983B2A81982B2E0195E
:1015800081B22846FFF7FFFE0B480090E01983B2B6
:101590002A4621462846FFF7F6FE0898022835D14C
:1015A00006480090A81982B223462146284607E043
:1015B000000400487DEF000065290000FFFF0000E7
:1015C000FFF7E1FEFC480090601CC01983B2A81927
:1015D000401E82B2601C81B2A819401E80B20190E8
:1015E000FFF7D1FEF4480090E01983B2A81982B247
:1015F000E01981B22846FFF7C6FEEF480090E019D7
:1016000083B22A4621462846FFF7BDFEFEBDF8B547
:1016100006460F4614461D46E7483B4622463946D5
:1016200000903046FFF7AFFEE3482B46324639467E
:1016300000903046FFF7A7FEE0486A1E93B291B2D1
:10164000721C009090B22246FFF79DFEDC482B46AC
:101650002246294600903046FFF795FED748631E84
:101660009AB27B1C99B2631E009098B22B46FFF78A
:101670008AFED3482B462246394600902046FFF783
:1016800082FEF8BDF8B504460D4616461F46CC4806
:101690002B463246294600902046FFF774FEC74885
:1016A0006A1C93B291B2621C009090B23246FFF76E
:1016B0006AFEC3483B462246294600902046FFF773
:1016C00062FEBE48631C9AB26B1C99B2631C009008
:1016D00098B23B46FFF757FEB7483B46324639467D
:1016E00000902046FFF74FFEB3483B46324629465E
:1016F00000903046FFF747FEF8BDFFB581B00646C3
:101700000096B9E00A980078802841DA0A980778AC
:101710000D2F05D1009E0298103080B2029033E068
:10172000202F03DD3846203887B200E0002700254F
:1017300025E000241FE038014019A249085C8021FF
:1017400021410840002808D0029A521991B232195A
:1017500090B2039AFFF718FD0BE0049903988842B2
:1017600007D0029A521991B2321990B2049AFFF737
:101770000BFD601CC4B2082CDDDB681CC5B2102D4B
:10178000D7DB3046083086B20A98401C0A9073E0D6
:10179000002769E0232078438B49095C0A98007888
:1017A00081425FD1232078438749401841780A98C5
:1017B0004078814256D1002552E0002422E02320C7
:1017C000784381494018C01C6900405C8021214158
:1017D0000840002808D0029A521991B2321990B2EA
:1017E000039AFFF7D1FC0BE004990398884207D0D5
:1017F000029A521991B2321990B2049AFFF7C4FCBE
:10180000601CC4B2082CDADB002425E023207843D6
:101810006D494018C01C6900491C405C8021214171
:101820000840002809D0029A521991B232190832A0
:1018300090B2039AFFF7A8FC0CE004990398884241
:1018400008D0029A521991B23219083290B2049A11
:10185000FFF79AFC601CC4B2082CD7DB681CC5B229
:10186000102DAADB781C87B2642F93DB0A98801CAA
:101870000A903046103086B20A980078002800D0CE
:1018800040E705B0F0BDFFB581B00646EEE00A982E
:101890000078802839DA0A980778202F03DD384647
:1018A000203887B200E00027002525E000241FE053
:1018B000380140194349085C802121410840002833
:1018C00008D0029A521991B2321990B2039AFFF7D6
:1018D0005BFC0BE004990398884207D0029A5219E6
:1018E00091B2321990B2049AFFF74EFC601CC4B258
:1018F000082CDDDB681CC5B2102DD7DB0A98401C14
:101900000A903046083086B2B0E00027A5E04B20B0
:1019100078432E49095C0A98007881427ED14B2099
:1019200078432A49401841780A9840788142F5D195
:1019300000258DE0002423E04B2078432349401804
:10194000C01C69006918405C8021214108400028C2
:1019500008D0029A521991B2321990B2039AFFF745
:1019600013FC0BE004990398884207D0029A52199D
:1019700091B2321990B2049AFFF706FC601CC4B20F
:10198000082CD9DB002432E04B2078430F49401863
:10199000C01C69006918491C405C80212141084035
:1019A000002815D0029A521991B23219083290B219
:1019B000039AFFF7E9FB18E0FFFF00001084000026
:1019C0000842000030500008A25D00081E690008AF
:1019D00004990398884208D0029A521991B2321998
:1019E000083290B2049AFFF7CFFB601CC4B2082CF7
:1019F000CADB002428E04B2078433F494018C01C34
:101A000069006918891C405C802121410840002838
:101A10000BD0029A521991B2321900E01BE0103239
:101A200090B2039AFFF7B0FB0CE004990398884248
:101A300008D0029A521991B23219103290B2049A17
:101A4000FFF7A2FB601CC4B2082CD4DB681CC5B233
:101A5000182D00DA6EE7781C87B2642F00DA56E79B
:101A60000A98801C0A903046183086B20A9800788E
:101A7000002800D00BE705B0F0BDFFB581B00746E8
:101A8000002434E000252EE00A98C0011B494018CC
:101A9000A1004018405D0090002620E080203041E9
:101AA0000099084000280AD0029A121991B2EA005F
:101AB000D219921990B2039AFFF766FB0DE00499D0
:101AC0000398884209D0029A121991B2EA00D219F9
:101AD000921990B2049AFFF757FB701CC6B2082EF9
:101AE000DCDB681CC5B2042DCEDB601CC4B2202C2C
:101AF000C8DB05B0F0BD00001E69000821560008D3
:101B000010B58CB004461E230BAA03A9204600F092
:101B1000FDFD00900098002802D001200CB010BDFF
:101B200008A8007B241800210B910FE008A8007B77
:101B300080005E4A115803A800F048FD002800D13B
:101B400008E008A8007B401CC1B20B9108A8007BEC
:101B50000828EBDB00BF08A8007B030003F053FA62
:101B60000705063A5C8AA2A1A00000BF50A002F0BF
:101B70000DFF50A002F00AFF5EA002F007FF6DA06B
:101B800002F004FF7BA002F001FF8AA002F0FEFE3B
:101B900098A002F0FBFEA5A002F0F8FEAAA002F0B9
:101BA000F5FEAFA002F0F2FEB3A002F0EFFEB8A087
:101BB00002F0ECFEBCA002F0E9FEC2A002F0E6FEDC
:101BC000CDA002F0E3FED9A002F0E0FEE4A002F016
:101BD000DDFEABE236A002F0D9FEF1A002F0D6FEA7
:101BE00000200B900EE0FE48026808A8007BC000B1
:101BF00010184168FBA002F0C9FE08A8007B401C39
:101C0000C1B20B91F648007D08A9097B8842EADC45
:101C100027A002F0BBFE89E225A002F0B7FEF3A0E8
:101C200002F0B4FE00200B901AE0ED490A6808A902
:101C3000097BC900511801AB02AA486803A900F04A
:101C40008AFDE748016808A8007BC0000A5803A97C
:101C5000F6A002F09BFE08A8007B401CC1B20B91CD
:101C6000DF48007D08A9097B8842DEDC10A002F075
:101C70008DFE5BE20EA002F089FE0BAA03A92046AE
:101C800000F04BFE08A8007B00280CD1694603A891
:101C900000F0D4FC0B9008A9087B002804D1CFE108
:101CA00042E212E2E4E1DDE1CFE100003000002099
:101CB0000D0A00002D2D2D2D2D2D2D2D2D2D2D2DF1
:101CC0002D2D2D2D2D2D2D2D2D2D2D2D55534D41C2
:101CD00052542056322E382D2D2D2D2D2D2D2D2DBB
:101CE0002D2D2D2D2D2D2D2D2D2D2D2D2D2D2D2031
:101CF0000D0A00002020202055534D415254CAC7E0
:101D0000D3C9414C49454E54454BBFAAB7A2B5C4AF
:101D1000D2BBB8F6C1E9C7C9B5C4B4AEBFDAB5F72E
:101D2000CAD4BBA5BDBBD7E9BCFE2CCDA8B9FD204C
:101D30000D0A0000CBFC2CC4E3BFC9D2D4CDA8B996
:101D4000FDB4AEBFDAD6FACAD6B5F7D3C3B3CCD09A
:101D5000F2C0EFC3E6B5C4C8CEBACEBAAFCAFD2C46
:101D6000B2A2D6B4D0D02ED2F2B4CB2CC4E3BFC929
:101D70000D0A0000D2D4CBE6D2E2B8FCB8C4BAAFA8
:101D8000CAFDB5C4CAE4C8EBB2CECAFD28D6A7B313
:101D9000D6CAFDD7D62831302F3136BDF8D6C62960
:101DA000A1A2D7D6B7FBB4AEA1A2BAAFCAFDC8EB09
:101DB0000D0A0000BFDAB5D8D6B7B5C8D7F7CEAA96
:101DC000B2CECAFD292CB5A5B8F6BAAFCAFDD7EE7A
:101DD000B6E0D6A7B3D63130B8F6CAE4C8EBB2CE77
:101DE000CAFD2CB2A2D6A7B3D6BAAFCAFDB7B520EA
:101DF0000D0A0000BBD8D6B5CFD4CABE2ED0C2D4EF
:101E0000F6B2CECAFDCFD4CABEBDF8D6C6C9E8D692
:101E1000C3B9A6C4DC2CD0C2D4F6BDF8D6C6D7AAA6
:101E2000BBBBB9A6C4DC2E0D0A000000BCBCCAF5C1
:101E3000D6A7B3D63A7777772E6F70656E656476DE
:101E40002E636F6D0D0A000055534D415254D3D08F
:101E500036B8F6CFB5CDB3C3FCC1EE3A0D0A0000DB
:101E60003F3A20202020BBF1C8A1B0EFD6FAD0C560
:101E7000CFA20D0A0000000068656C703A20BBF12B
:101E8000C8A1B0EFD6FAD0C5CFA20D0A000000005D
:101E90006C6973743A20BFC9D3C3B5C4BAAFCAFD65
:101EA000C1D0B1ED0D0A0A0069643A202020BFC9F3
:101EB000D3C3BAAFCAFDB5C44944C1D0B1ED0D0A10
:101EC0000A0000006865783A2020B2CECAFD31369B
:101ED000BDF8D6C6CFD4CABE2CBAF3B8FABFD5B8AF
:101EE000F12BCAFDD7D6BCB4D6B4D0D0BDF8D6C677
:101EF000D7AABBBB0D0A0A006465633A2020B2CEA4
:101F0000CAFD3130BDF8D6C6CFD4CABE2CBAF3B89C
:101F1000FABFD5B8F12BCAFDD7D6BCB4D6B4D0D051
:101F2000BDF8D6C6D7AABBBB0D0A0A00C7EBB0B432
:101F3000D5D5B3CCD0F2B1E0D0B4B8F1CABDCAE4C3
:101F4000C8EBBAAFCAFDC3FBBCB0B2CECAFDB2A2E9
:101F5000D2D4BBD8B3B5BCFCBDE1CAF82E0D0A0083
:101F60002D2D2D2D2D2D2D2D2D2D2D2D2D2D2D2DA1
:101F70002D2D2D2D2D2D2D2D2D2D414C49454E54E2
:101F8000454B2D2D2D2D2D2D2D2D2D2D2D2D2D2D4B
:101F90002D2D2D2D2D2D2D2D2D2D2D200D0A00001B
:101FA0002D2D2D2D2D2D2D2D2D2D2D2D2D2D2D2D61
:101FB0002D2D2D2D2D2D2D2D2DBAAFCAFDC7E5B5FB
:101FC000A52D2D2D2D2D2D2D2D2D2D2D2D2D2D2DC9
:101FD0002D2D2D2D2D2D2D2D2D2D2D2D200D0A00AE
:101FE0006800002025730D0A000000002D2D2D2D06
:101FF0002D2D2D2D2D2D2D2D2D2D2D2D2D2D2D2D11
:102000002D2D2D2D2DBAAFCAFD204944202D2D2D6B
:102010002D2D2D2D2D2D2D2D2D2D2D2D2D2D2D2DF0
:102020002D2D2D2D2D2D2D2D200D0A0025732069F0
:10203000642069733A0D0A3058253038580D0A006B
:10204000FDA0009902F0A2FC0EE008A8007B042885
:1020500001D0022062E5FBA002F098FC0120FE49BD
:10206000C87501E0022059E5F5A002F08FFC5DE0A3
:10207000F3A002F08BFC0BAA03A9204600F04DFC54
:1020800008A8007B00281AD1694603A800F0D6FAF8
:102090000B9008A9087B002804D1F0A0009902F059
:1020A00075FC0EE008A8007B042801D0022035E56D
:1020B000EDA002F06BFC0020E749C87501E00220AA
:1020C0002CE5DFA002F062FC30E0DDA002F05EFC57
:1020D0000BAA03A9204600F020FC08A8007B0028DA
:1020E0001CD1694603A800F0A9FA0B9008A9087B47
:1020F000002811D1D848C07D012806D1009801469A
:102100000268DEA002F042FC0AE000980146026884
:10211000DEA002F03BFC03E00220FFE40220FDE42D
:10212000C7A002F033FC01E00120F7E400BF00206B
:10213000F4E410B50446204664225043401E81B2A8
:102140007D20C000FEF7CEFD0120C349C87510BD3B
:1021500030B595B0054613AB12AA09A9284600F080
:10216000FAFA0446002C02D0204615B030BD0020FB
:10217000149027E0B849096810AA127CD200891887
:1021800013AB11AA486801A900F0E5FA0446002C37
:1021900001D02046E9E709A901A800F017FA0028B4
:1021A0000BD110A80179007A814201DD0220DCE721
:1021B00010A8007CA84988750AE010A8007C401C83
:1021C000C1B21491A448007D10A9097C8842D1DCD9
:1021D00000BFA148007D10A9097C884201D10420DC
:1021E000C3E714A9284600F00AFC0446002C01D0DD
:1021F0002046BAE710A8007C974948750020B4E74C
:10220000F0B59DB09448847D007DA04201DC1DB0F6
:10221000F0BD91490968E200891809AB0AAA48682B
:102220000BA900F098FA0BA99BA002F0AFFB0026C7
:1022300045E08948008B0121B140084000281BD0AF
:10224000222197A002F0A2FB304600F0CBFB82498E
:1022500024314718394693A002F098FB222190A020
:1022600002F094FB304600F0BDFB7B49243140185E
:10227000B10013AA505018E0304600F0B3FB764985
:1022800024310858B10013AA50507348C07D00286B
:1022900005D1B000115884A002F078FB05E0B00031
:1022A00013AA115881A002F071FB08A8007A401E01
:1022B000B04202D07FA002F069FB701CC6B208A831
:1022C000007A8642B5DB7CA002F060FB6248407D6C
:1022D000030002F098FE0B070E161F2A3846586CB2
:1022E0008198B0005C490968E2008858804705463B
:1022F000A1E0594A1268E300D1581398884705466F
:1023000099E0554B1B68E700DA59149913989047E8
:10231000054690E050490968E700CB59159A149991
:10232000089113989847054685E04B490968E200F3
:102330008F58169B1599089114990791089A13982C
:10234000B847054677E01798009043480068E700D3
:10235000C059079013A80FC80890079FB8470546B3
:1023600069E018991798019100903B490968E200CB
:102370008F58169B1599089114990791089A1398EC
:10238000B847054657E0189A179919980192009195
:102390000290314A1268E700D2590792169B159AAB
:1023A0000892079F14991398B847054643E0189B75
:1023B000179A19991A98019300920291039026484E
:1023C0000068E300C7581698089013A807C807903C
:1023D000089BB84705462EE0199B189A1B991A9836
:1023E0000293019204910390179800901A48006894
:1023F000E100475814A80DC8089013980790089951
:10240000B847054617E01A9B1B9A19991C98039325
:1024100004920291059018991798019100900E4826
:102420000068E700C059079013A80FC80890079FDD
:10243000B847054600BF41E04845583A305825584E
:102440000D0A00003136BDF8D6C6B2CECAFDCFD4D3
:10245000CABE210D0A000000680000204445433A2E
:10246000256C750D0A0000003130BDF8D6C6B2CE1D
:10247000CAFDCFD4CABE210D0A0000002A28305858
:102480002558293D305825580D0A00002A28256472
:10249000293D25640D0A00000D0A2573280000005F
:1024A0002563000025730000256C75003058255801
:1024B000000000002C0000002900000000BF08A858
:1024C000007901280DD12B48C07D002804D1294670
:1024D00029A002F05BFA07E0294629A002F056FA8B
:1024E00002E026A002F052FA00BF90E670B527483D
:1024F00000880121C9030840002835D02348057809
:102500000020234948551B488168214888470446D4
:10251000002C03D11749C868804722E01C48FFF708
:10252000EFFA0546012D00D02C46002C19D0012CC5
:1025300006D0022C08D0032C0AD0042C10D10BE0BA
:1025400014A002F023FA0BE015A002F01FFA07E036
:1025500016A002F01BFA03E017A002F017FA00BF62
:1025600000BF00200949088070BD01460868704717
:1025700001607047680000203D256C753B0D0A0026
:102580003D305825583B0D0A000000002400002073
:1025900064010020BAAFCAFDB4EDCEF3210D0A00EC
:1025A000B2CECAFDB4EDCEF3210D0A00B2CECAFD03
:1025B000CCABB6E0210D0A00CEB4D5D2B5BDC6A5D0
:1025C000C5E4B5C4BAAFCAFD210D0A0002460BE04E
:1025D00010780B78984201D00120704710780028BD
:1025E00000D102E0521C491CF2E700BF0020F4E7D2
:1025F00007E002780A700278002A00D102E0401C4D
:10260000491CF6E700BF70470146002006E00A7843
:10261000002A00D103E0421CD0B2491CF7E700BFFA
:10262000704710B50246012002E0034653431846A6
:102630000B464C1EE1B2002BF7D110BDFCB507468E
:102640000E4600250A2000903C46002030601FE026
:102650002078392802DC207830280ADA20784628C9
:1026600002DC2078412804DA2078582809D1012D8D
:1026700007D12078412801DB10200090681CC5B2EA
:1026800005E02078002800D103E00120FCBD641C97
:10269000DEE700BF3C46009810280FD1032D01DA79
:1026A0000220F3E72078302806D16078582803D13B
:1026B000A41CA81EC5B205E00320E7E7002D01D148
:1026C0000420E3E71EE0002D01D0681EC5B220788B
:1026D000392806DC2078302803DB20783038019058
:1026E00002E020783738019029460098FFF799FFDB
:1026F00001994843316840183060641C20780028F4
:1027000000D100E0DFE700BF0020BFE710B50446BE
:10271000002010700BE020780870641C491C1078B1
:10272000401C10701078984201DB012010BD207809
:10273000202802D020780028EDD10020087000BFAA
:10274000F4E7014600E0491C0878202801D100295F
:10275000F9D108787047FFB587B0002600200590B2
:10276000049001200390002000900025079C1EE0AB
:102770002078202817D06806400E052813DA002D8F
:1027800001D1802005436806400E042803D120783B
:102790002A2800D00EE020786906490E01AA50547C
:1027A000681CC5B202E0852D00D103E0641C2078CE
:1027B0000028DDD100BF002D12D000206906490E8F
:1027C00001AA5054D0A101A8FFF700FF002803D1AF
:1027D00000210A98017002E001210A980170002589
:1027E00000200690079C0FE0641C0698401CC0B2B5
:1027F00006902078202807D12046FFF7A2FF074641
:10280000282F01D0069805902078282802D020781B
:102810000028E9D1079C0598002802D00598401CA3
:1028200024180020069000275EE02078002802D1BE
:102830000120069059E02078282804D1002F02D1E9
:10284000701CC6B217E0207829280BD1002F09D1BF
:10285000002E02D0701EC6B201E001200690002EAC
:1028600009D142E02078222805D1002F01D1012092
:1028700000E000200746002E09D12078202832D021
:102880002178089801700898401C08902BE0207867
:102890002C2804D101200390681CC5B216E02078D2
:1028A000202813D02078282810D0002D0AD1009895
:1028B000052807DA217801AA009811540098401CD5
:1028C000C0B200900398401CC0B20390012E0AD100
:1028D0000398022807D10398401CC0B203900498C3
:1028E000401CC0B20490641C9FE700BF04980128FC
:1028F0000AD1002101AA0098115483A101A8FFF771
:1029000065FE002800D10490099904980870002100
:102910000898017006980BB0F0BDF0B50346154657
:10292000002000220026002456E01F782C2F02D120
:10293000002C00D101221F78292F02D01F78002FF0
:1029400002D1002C00D148E0002E36D11F78302F64
:1029500002DB1F78392F11DD1F78612F02DB1F7812
:10296000662F0BDD1F78412F02DB1F78462F05DD18
:102970001F78582F02D01F78782F0DD1002A00D051
:102980002BE01F78612F03DB1F78203F0F7001E0E1
:102990001F780F70491C1CE01F78222F05D1002AD8
:1029A00000D01AE00126012413E01F78202F10D058
:1029B0001F782C2F0DD0FF260FE01F78222F00D17B
:1029C0000024002A00D008E0002C02D01F780F70ED
:1029D000491C471CF8B25B1CA7E700BF00270F701B
:1029E0002E70F0BD02460020002105E0484B5B5CE4
:1029F0001B18D8B24B1CD9B29142F7DB7047F0B527
:102A0000B7B005460F460024002604E000214048E8
:102A10008155701CC6B20A2EF8DB06E06D1C2878C2
:102A2000002802D1012037B0F0BD28782828F5D140
:102A30006D1C64E036AA01A92846FFF76EFF064622
:102A4000AD1930A8007E002804D0012829D0FF2825
:102A50004DD14AE068460079002821D035A901A867
:102A6000FFF7ECFD0646002E01D00220DBE72046F2
:102A7000FFF7B8FF26490A31359A0A50084624382C
:102A8000008B0121A140884321491A390883042180
:102A90001F480155601CC4B20A2C01DD0320C2E7A7
:102AA00025E001A8FFF7B0FD401CC0B234902046DD
:102AB000FFF798FF16490A3140180146009001A817
:102AC000FFF796FD12481A38008B0121A1400843F8
:102AD0000F491A3908831A3134980855601CC4B25A
:102AE0000A2C01DD03209EE701E002209BE700BFE6
:102AF0002878292802D02878002800D100E099E71A
:102B000000BF3C7000208EE7766F69640000000013
:102B1000820000203D483E490860002048608860EF
:102B2000C8603C4848617047002139498279002AD1
:102B300035D00A46126803689A430B461A600A4663
:102B4000526803689A430B465A60027951180A6822
:102B500003681A430A602E4A926803689A432C4B12
:102B60009A601A46D26803689A43294BDA60427920
:102B7000102A0CD11A46926803681A43244B9A60B3
:102B80001A46D26803681A43214BDA600DE02049E7
:102B9000427951180A6803681A430A6005E002790D
:102BA00051180A6803689A430A607047002101605F
:102BB00001710C214171002181717047144909692B
:102BC0000143134A1161704701460020104A5269BF
:102BD0000A4201D0012000E0002070470C49486102
:102BE0007047014600200022094B1B680B401A4623
:102BF000074B5B690B4203D0002A01D0012000E0A3
:102C00000020704702494861704700000000940F9F
:102C100000040140FFFF6B0010B504460920C00608
:102C2000844209D10121480400F0E2FB0021012087
:102C3000400400F0DDFB30E06A48844208D1012105
:102C4000000200F0D5FB0021200200F0D1FB24E0BF
:102C50006548844208D10121000200F0C9FB00212F
:102C6000200200F0C5FB18E06048844209D1012130
:102C7000080500F0BDFB00210120000500F0B8FBB5
:102C80000BE05B48844208D10121880500F0B0FBCD
:102C900000210120800500F0ABFB10BDF0B50A4615
:102CA00000210023002400BF3DE001258D402B467C
:102CB00015681D402C469C4234D11579012D02D057
:102CC0001579022D16D185684F000326BE40B54305
:102CD000856055794E00B5408668354385608588A6
:102CE00001268E40B5438580858896798E40B6B2A0
:102CF0003543858005684F000326BE40B543056017
:102D000015794E00B540066835430560C5684F002B
:102D10000326BE40B543C560D5794E00B540C668B0
:102D20003543C560491C1029BFD3F0BD314901604E
:102D3000002101710221417100218171C17170472F
:102D40000122120413460B431A46C261C161C261DB
:102D5000C269C269704702460020138A0B4201D043
:102D6000012000E0002070470146088A70470246B3
:102D70000020938A0B4201D0012000E00020704720
:102D80000146888A70478161704701857047002A33
:102D900001D0816100E00185704781827047F0B504
:102DA000002300244D07EE0E1546B5402B46CD10EE
:102DB000AE0005462035AD594E07F70E0F26BE4032
:102DC000B543CE10B60007462037BD51CD10AE003A
:102DD0003D46AD591D432C46CD10AD003E467451C5
:102DE000F0BD00000004004800080048000C004846
:102DF00000140048FFFF000000218278002A27D03D
:102E0000274A03231B02D21803789B109B00D1583A
:102E100002789207D30EFF229A400B46934319463D
:102E200042789207120E03789B07DB0E9A401143FB
:102E30001B4A03231B02D21803789B109B00D1501E
:102E40000278D306DB0E01229A40154B1A6007E088
:102E50000278D306DB0E01229A40114B80331A60B0
:102E60007047002905D00F4A126902430D4B1A61C1
:102E700004E00C4A126982430A4B1A617047042825
:102E800006D10949096904221143074A116105E085
:102E90000549096904229143034A11617047000002
:102EA00000E100E000ED00E000E000E0FB48006829
:102EB00001210843F949086008464068F84908407C
:102EC000F649486008460068F6490840F34908603A
:102ED00008460068012189048843F04908600846D3
:102EE00040683F2109048843EC4948600846C06AAD
:102EF00000090001C8620846006BFF215431884375
:102F0000E64908630846406B4008400048630020DB
:102F1000886070470021E14A9170114688707047BF
:102F200010B502460021002300205111002902D1D2
:102F3000DA4C23680BE0012902D1D84C236A06E061
:102F4000022902D1D54C636A01E0D44C636BD106EF
:102F5000C90E01248C401C4201D0012000E0002059
:102F600010BD70B500240025002600BF1120FFF71A
:102F7000D7FF0646641C05200002844201D0002EC3
:102F8000F4D01120FFF7CCFF002801D0012500E08C
:102F90000025284670BD01460020C04A1068F8236D
:102FA00002469A431046CA001043BC4A106070475C
:102FB000002806D0B949096801221143B74A1160B7
:102FC00005E0B649096849084900B44A11607047EC
:102FD00001460020B14A506BF82302469A4310463E
:102FE000CA001043AD4A50637047002806D0AB4971
:102FF000496B01221143A94A516305E0A749496B76
:1030000049084900A54A51637047002806D0A349E2
:10301000496B04229143A14A516305E09F49496BE2
:10302000042211439D4A516370479C49096A49082B
:1030300049009A4A11621146096A04229143974A4B
:1030400011621146096A0143116270479349096A86
:1030500018229143914A11621146096A0143116293
:103060007047002806D08D49496A012211438B4AD6
:10307000516205E08949496A49084900874A516215
:103080007047864A52683D231B049A43834B5A601B
:103090001A46526803460B431A43804B5A607047E6
:1030A000002807D07D4909680122120611437B4A96
:1030B000116006E079490968012212069143774AB6
:1030C0001160704701460020744AD06A000900016F
:1030D00002460A431046714AD0627047002807D062
:1030E0006E4909680122D20411436C4A116006E05E
:1030F0006A4909680122D2049143684A1160704705
:103100006649C871704701460020644A50688008CB
:10311000800002460A431046604A506070475F488C
:1031200040680C2108407047014600205B4A506807
:10313000F02302469A43104602460A431046574A75
:103140005060704701460020544A506807231B0214
:1031500002469A43104602460A4310464F4A5060C0
:1031600070474E4949680122920391434B4A51608E
:103170001146496882B21143484A51601146096BB1
:1031800092159143454A11631146096B020C114394
:10319000424A116370474149096B402291433F4ABB
:1031A00011631146096B0143116370473B49096B79
:1031B00010229143394A11631146096B014311638F
:1031C00070473649096B89088900344A11631146F2
:1031D000096B014311637047FEB5044600250026C4
:1031E00000200190009000272C4840680C210840E6
:1031F0000546002D04D0042D05D0082D28D105E06A
:103200002948206027E02848206024E023484068BF
:103210000F2189040840064620484068012109041E
:1032200008400190B00C861C0198002803D11F486B
:10323000704320600BE01948C06A0007000F401C73
:1032400000901948009901F025FD7043206002E0CC
:103250001548206000BF00BF10484068F0210840BA
:1032600005462D091248475D2068F84060600B480C
:10327000406807210902084005462D0A0C48475DB1
:103280006068F840A0600548006BFF2101310840EC
:10329000884211D00748E0601CE0000000100240A6
:1032A0000CB8FFF8FFFFF6FE00127A0000093D009F
:1032B00054010020809FD500744840680121890393
:1032C0000840884203D0A0684008E06002E0A0689F
:1032D0008008E0606D48006B40210840402802D023
:1032E0006B48206102E00120C00320616748006B49
:1032F00010210840102802D06648606101E0206873
:1033000060616248006B8007800F02D1A068A061F5
:1033100019E05E48006B8007800F012802D1206809
:10332000A06110E05948006B8007800F022802D18D
:103330008003A06107E05548006B8007800F0328D9
:1033400001D15448A061FEBD5049096A01434F4A6A
:1033500011627047002807D04C49096A0122D20344
:1033600011434A4A116206E04849096A0122D20320
:103370009143464A11627047002807D04349096AC1
:10338000012212041143414A116206E03F49096AD1
:103390000122120491433D4A11627047002905D071
:1033A0003A4A52690243394B5A6104E0374A52693A
:1033B0008243364B5A617047002905D0334A9269DF
:1033C0000243324B9A6104E0304A926982432F4BA8
:1033D0009A617047002905D02C4AD26902432B4BD1
:1033E000DA6104E0294AD2698243284BDA617047E6
:1033F000002905D0254A926A0243244B9A6204E0D0
:10340000224A926A8243214B9A627047002905D072
:103410001E4AD26802431D4BDA6004E01B4AD268A0
:1034200082431A4BDA607047002905D0174A1269A7
:103430000243164B1A6104E0144A12698243134B8B
:103440001A617047002905D0104A527A02430F4B87
:103450005A7204E00D4A527A82430C4B5A727047FA
:103460000A48406A01210906084308494862704732
:1034700001460020054A92680A4201D0012000E07E
:103480000020704701498872704700000010024018
:103490001280000000127A0010B50446E24884420F
:1034A00008D101218014FFF7B1FF0021A014FFF71C
:1034B000ADFF0AE0DD48844207D101210014FFF787
:1034C000B3FF00212014FFF7AFFF10BD00210180E2
:1034D00041800721090281800021C1800181418151
:1034E0008181C18107210182704710B500220288C5
:1034F000C1239B011A400B88CC892343CC882343EA
:103500000C8923434C8923438C8923431A4302802B
:103510008288C74B1A408B881A4382800B8A0382A9
:103520000288C44B1A404B881A430280838BC24CDA
:103530002340838310BD0021018041808180C180B0
:1035400002218160002181817047F0B58DB0054670
:103550000C4600200C9002270B9001200A900026B8
:1035600000200290A88BB249BF390840A8830220EE
:103570002884A88B0C90A068022802D100200B9010
:1035800038E0A088002802D101200A9001E0022042
:103590000A9003A8FFF720FE03980290E088C11F5D
:1035A000FF39FA390AD1A168029A120A0A235A434A
:1035B000104601F06FFB401D86B20CE00A984101F5
:1035C000029801F067FB0A2148430190A16801F0CD
:1035D00061FB401D86B20A21304601F05BFB0646C6
:1035E000F007C00F0B900B98301AC003070C0B9814
:1035F00000020B90022F01DBFF2F02DD02270020CB
:103600000B90E0880B99084338432884A088A1894F
:10361000084361880843218808430121C9020843FF
:103620000C9908430C900C98A8830DB0F0BD0029AC
:1036300004D0028840231A43028004E002887D4BB4
:103640003C3B1A4002807047002904D08288102336
:103650001A43828004E08288764B0C3B1A408280B9
:103660007047002905D0828B01239B021A43828375
:1036700003E0828B714B1A40828370470A46002117
:1036800081886B4B19400B46134319468180704764
:1036900082886B4B1A40828082880A4382807047FE
:1036A00001229203914204D102880B461A43028000
:1036B00003E00288634B1A40028070475D4AFC3A7F
:1036C000914205D00288FF2301331A43028004E0AF
:1036D0000288584BFC3B1A4002807047002904D0F6
:1036E000828804231A43828003E08288514B1A4067
:1036F00082807047002904D0828808231A43828080
:1037000004E082884B4B1B1F1A40828070470022C6
:1037100002460C32117070478181704701460022C9
:103720000A460C3210787047014688897047028833
:10373000414B1A40028002880A43028070470029E8
:1037400005D0028801235B031A43028003E002884C
:103750003D4B1A4002807047018801221203114339
:103760000180704702460020012901D0108B00E043
:10377000908A70470146088A7047002A03D08388E0
:103780000B43838002E083888B4383807047828869
:103790002E4B1A40828082880A438280704730B55F
:1037A000002400230C110125A540ABB2002A03D050
:1037B00085881D43858002E085889D43858030BDD6
:1037C000014608890322D202104070470146088949
:1037D00003225202104070470246002013890B4218
:1037E00001D0012000E000207047CA4302817047E9
:1037F000F0B5024600200024002300250F073F0FEC
:103800000126BE40B4B20B1101269E40B3B2968889
:103810001E4035461689264203D0002D01D00120D6
:1038200000E00020F0BD0000003001400038004002
:10383000FFF00000FBFF0000FFF70000FFFB0000AF
:10384000FFEF0000FFBF0000FFDF0000FF9F000050
:1038500010B50446FE48844208D10121C014FFF788
:10386000D5FD0021E014FFF7D1FD56E001208007CF
:10387000844208D101210846FFF7D6FD002101202E
:10388000FFF7D2FD49E0F348844208D1012102202C
:10389000FFF7CAFD00210220FFF7C6FD3DE0EE481C
:1038A000844208D101211020FFF7BEFD0021102025
:1038B000FFF7BAFD31E0E948844208D101218015C3
:1038C000FFF7B2FD0021A015FFF7AEFD25E0E448AB
:1038D000844209D101210804FFF798FD002101204D
:1038E0000004FFF793FD18E0DE48844209D101216E
:1038F0004804FFF78BFD002101204004FFF786FDFF
:103900000BE0D948844208D101218804FFF77EFDED
:10391000002101208004FFF779FD10BD00220288FC
:10392000CB4B984206D001239B07984202D0C94B4B
:10393000984203D1CD4B1A404B881A43C64B98424C
:1039400003D0CB4B1A400B891A4302804B68C362E9
:103950000B880385BE4B984208D0C14B984205D0D6
:10396000C04B984202D0C04B984201D18B7A03865B
:103970000123838270470021C943416000210180F7
:1039800001814180817270470185828270470A46B9
:1039900000210188B54B19400B461343194601809D
:1039A000704741627047C16270470146486A70477C
:1039B0000146088D7047002904D0028802231A436B
:1039C000028004E00288A94B6E331A4002807047DF
:1039D000002904D0028804231A43028004E00288EC
:1039E000A24B6C331A4002807047002904D0028831
:1039F00080231A43028004E002889C4B103B1A404B
:103A0000028070470288994B68331A40028002880E
:103A10000A43028070470288954B1A400280028850
:103A20000A4302807047002904D0028801231A4308
:103A3000028004E002888D4B6F331A400280704789
:103A40000A884B881A438B881A43CB881A430B8900
:103A50001A434B891A438B891A4344231A527047DD
:103A60000021018041808180C1800181418181816B
:103A70007047002907D04422125A0123DB031A435E
:103A800044231A5205E04422125A53045B0C442288
:103A90001352704770B5002400220023058C734E2A
:103AA0006F3635400584028C8388048B6F4D2C4023
:103AB000B51E2C400D882C43751E2A408D892A4343
:103AC0004D882A43624DA84208D0654DA84205D0D2
:103AD000644DA84202D0644DA84212D1634D6835AE
:103AE0002A40CD892A43614D6C352A408D882A436E
:103AF0005E4D903D2B405F4D2B400D8A2B434D8AF0
:103B00002B43838004838D684563028470BD70B548
:103B1000002400220023058C544E60363540058475
:103B2000028C8388048B544D2C40514D2C400D78D1
:103B30002D062D0C2C434D4D50352A408D892D05D9
:103B40002D0C2A434D882D052D0C2A43404DA842AB
:103B500019D1464D103D2A40CD892D052D0C2A4303
:103B6000424D30352A408D882D052D0C2A43434D7A
:103B70002B40434D2B400D8AAD042D0C2B434D8A19
:103B8000AD042D0C2B43838004838D6885630284F0
:103B900070BD70B5002400220023058C334E903E8A
:103BA00035400584028C8388848B304D2C402F4D0A
:103BB0006D352C400D882C432E4D2A400D7B2D0653
:103BC0002D0C2A438D782D062D0C2A43204DA8421A
:103BD00017D12B4D2A408D7B2D062D0C2A43274DC6
:103BE0002A400D792D062D0C2A43264D2B40264DBB
:103BF0002B400D8A2D052D0C2B434D8A2D052D0CA8
:103C00002B43838084838D68C563028470BD70B547
:103C1000002200230024058C1A4E35400584038CB5
:103C20008488828B144D2A40114D2A400D782D0630
:103C30002D0C2A43144D2B400D7B2D072D0C2B43AF
:103C40008D782D072D0C2B43014DA84224D11DE06A
:103C5000002C014000040040001000400020004003
:103C60000040014000440140004801408FFF000037
:103C7000FFFC0000FFFD0000FF8F0000FFFB0000C5
:103C8000FFF70000FFEF0000FFDF0000FC4D2C40BD
:103C90000D8AAD052D0C2C43848082838D680564CC
:103CA000038470BD00210180418081808160818119
:103CB000C18101824182704770B503460020002413
:103CC0001846183001258D40ACB21D8CA5431D84CB
:103CD000002901D0082909D14D102818056870263F
:103CE000B54305600568154305600DE00D1F2D0403
:103CF0006D0C2818056807263603B543056005686E
:103D00001606360C3543056070BD4163704781630C
:103D10007047C1637047016470470A460021018BF8
:103D2000D84B19400B4613431946018370470A4686
:103D30000021018BD44B194013061B0C194301833E
:103D400070470A460021818BCE4B19400B46134326
:103D50001946818370470A460021818BCA4B19405E
:103D600013061B0C194381837047002904D08288F5
:103D700001231A43828004E08288C24B6F331A40C9
:103D8000828070470A460021018BBE4B6833194080
:103D90000B4613431946018370470A460021018BE5
:103DA000BA4B194013061B0C1943018370470A468E
:103DB0000021818BB34B683319400B4613431946DE
:103DC000818370470A460021818BB04B194013064E
:103DD0001B0C1943818370470A460021018BA94BB4
:103DE0006C3319400B4613431946018370470A464A
:103DF0000021018BA64B194013061B0C19430183AC
:103E000070470A460021818B9E4B6C3319400B464C
:103E100013431946818370470A460021818B9C4BCE
:103E2000194013061B0C1943818370470A46002171
:103E3000018B944B103B19400B46134319460183E9
:103E400070470A460021018B4904490C13061B0CDC
:103E50001943018370470A460021818B894B103B2F
:103E600019400B4613431946818370470A460021C7
:103E7000818B4904490C13061B0C1943818370473D
:103E80000A460021018C7F4B6E3319400B461343C9
:103E90001946018470470A460021018C794B68332A
:103EA00019400B4613431946018470470A46002106
:103EB000018C744B5033194013051B0C19430184BA
:103EC00070470A460021018C6E4B103B19401305C8
:103ED0001B0C1943018470470A460021018C6D4B6D
:103EE000194013061B0C1943018470470A46002130
:103EF000018C664B194013061B0C19430184704753
:103F00000A460021018C644B194013071B0C19430E
:103F10000184704702895B4B68331A400281028931
:103F20000A430281704730B5002301248C40A3B2BC
:103F3000048C9C430484048C15468D40ADB22C4304
:103F4000048430BD30B5002304248C40A3B2048C1B
:103F50009C430484048C15468D40ADB22C430484EC
:103F600030BD002904D0828804231A43828004E0F3
:103F70008288444B6C331A4082807047828B474B57
:103F80001A408283828B0B061B0C1A438283704774
:103F9000F8B50C460021002500260096068C404FFF
:103FA0003E400684818B058C2607360C00963D4EDC
:103FB00031401606360C31431E07360C31433A4E5B
:103FC000354001273F03009E3E43354381830584EE
:103FD000F8BD828B2B4B64331A408283828B0A4359
:103FE00082837047F8B50C46002100250026009614
:103FF000068C244F903F3E400684818B058C26061C
:10400000360C00961F4E833E31401E05360C16437B
:104010003143264E3540FF270137009E3E4335434E
:1040200081830584F8BD028B1C4B1A400283028BEE
:104030000B061B0C1A4302837047F8B50C4600218F
:10404000002500260096068C0E4F60373E40068401
:10405000018B058C2605360C0096124E31401E074A
:10406000360C31431606360C3143064E303E354091
:104070001027009E3E43354301830584F8BD0000B0
:10408000FFBF00008FFF0000FF8F0000FFF7000060
:10409000FFFB0000FFFD0000FFDF0000FFF300005A
:1040A000FFEF0000FF0C0000FF5F0000FFF50000C5
:1040B000028BD84B1A400283028B0A43028370475B
:1040C000F0B50C4600210025068CD24F0B373E4040
:1040D0000684018B058CCF4EE73E31401E05360C21
:1040E00016433143CB4EB61C35400126264335439B
:1040F00001830584F0BD70B505460C462088002874
:104100000AD12389A28861882846FFF7D9FFE18870
:104110002846FFF7CDFF25E0208804280AD123890F
:10412000A28861882846FFF788FFE1882846FFF7C4
:104130007AFF17E0208808280AD12389A28861889D
:104140002846FFF74FFFE1882846FFF742FF09E0C6
:104150002389A28861882846FFF71AFFE18828464C
:10416000FFF70CFF70BD002101804180012181809B
:104170000021C18001817047F8B505460C46002634
:1041800001276088002801D1022600E00026A088CF
:10419000012801D1022700E001272088002814D13E
:1041A0002389A28861882846FFF78AFFE18828468C
:1041B000FFF77EFF23893A4631462846FFF73DFF49
:1041C000E1882846FFF72FFF13E02389A288618842
:1041D0002846FFF732FFE1882846FFF724FF2389AE
:1041E0003A4631462846FFF76BFFE1882846FFF73D
:1041F0005FFFF8BD0146486B70470146886B70470A
:104200000146C86B70470146086C7047002A03D00E
:1042100083890B43838102E083898B4383817047C9
:104220008182704702460020138A0B4201D0012090
:1042300000E000207047CA430282704730B5024652
:10424000002000230024158A0D402B4695890D403F
:104250002C46002B03D0002C01D0012000E00020D0
:1042600030BDCA430282704710B50B461343482441
:10427000235210BD002A03D083890B43838102E0BF
:1042800083898B4383817047002904D08288082367
:104290001A43828004E082885E4B1B1D1A40828094
:1042A000704701895B4A521D1140018170470A46DF
:1042B00000210189574B643B19400B4613431946B3
:1042C0000181704730B504460D4629462046FFF768
:1042D000EEFF208907210843208130BDF8B5044650
:1042E0000D4616461F46602D06D13B46012231463B
:1042F0002046FFF7A2FE05E03B460122314620465C
:10430000FFF7DEFE29462046FFF7D1FF208907216F
:1043100008432081F8BD30B50C4600210189C9B29F
:104320001D062D0C154325432943018130BDFFB5E2
:1043300005460E46174600243A4631462846039B5A
:10434000FFF7E9FF2C893348401D04400720044350
:10435000304864380440702004432C81FFBDF0B520
:1043600004460D4616461F463B4632462946204621
:10437000FFF7D1FF20890121890308432081F0BD87
:104380008288244B643B1A40828082880A43828060
:10439000704702891F4B5B1D1A40028102890A4344
:1043A0000281704702891B4B743B1A4002810289CB
:1043B0000A4302817047F0B50C4600210025002613
:1043C0000189058B068C134F7F1D39400F4627430B
:1043D0003946114F3D40FF2702373D430D4F9E3F69
:1043E0003E401F053F0C17433E4301810583068471
:1043F000F0BD002904D0828880231A43828004E023
:104400008288044B743B1A408280704750221152BC
:1044100070470000F3FF0000FCFC000010B50446EC
:10442000F648844209D101218803FEF7EFFF0021FD
:1044300001208003FEF7EAFF0BE0F148844208D137
:1044400001214804FEF7F0FF002101204004FEF79F
:10445000EBFF10BDF0B589B005460E4600240020E4
:10446000089000BF00BF28684008400028606C68C2
:1044700003210903204688430446B06804436C6066
:104480002C68E0480440F1687068084331690843CB
:1044900004432C60AC68032109022046884304468B
:1044A00070690443AC606846FEF796FED3488542C7
:1044B00002D10698089001E002980890286801212E
:1044C000C903084209D0326851001923089A5A4397
:1044D000104600F0DFFB074608E032689100192320
:1044E000089A5A43104600F0D5FB07466421384627
:1044F00000F0D0FB0401200964214843381A0790DA
:1045000028680121C90308420AD00799C900084652
:104510003230642100F0BEFB4007400F044309E045
:104520000799090108463230642100F0B3FB000707
:10453000000F0443AC8109B0F0BD4B21C9010160FB
:10454000002141608160C1600C2101610021416155
:10455000704710B5002242680F2424021346A3437B
:104560001A464C680B6823438C682343CC6823436A
:104570001A43426010BD0021016041608160C1604A
:104580007047002904D0026801231A43026003E047
:1045900002685208520002607047002A03D0036884
:1045A0000B43036002E003688B43036070470029FC
:1045B00005D002680123DB031A43026004E00268AD
:1045C0000123DB039A4302607047002905D082680B
:1045D0000123DB021A43826004E082680123DB02CC
:1045E0009A4382607047002905D042680123DB04AA
:1045F0001A43426004E042680123DB049A434260AC
:104600007047002905D0426801239B041A43426089
:1046100004E0426801239B049A4342607047002AE9
:1046200003D043680B43436002E043688B4343601D
:104630007047002905D042680123DB031A4342601A
:1046400004E042680123DB039A434260704700297B
:1046500005D042680123DB051A43426004E042684A
:104660000123DB059A43426070474269120E12062D
:10467000426142690A4342617047028AFF231B027A
:104680001A400282028A0A4302827047002904D03B
:10469000026802231A43026003E0026802239A437D
:1046A00002607047826803231B059A438260826818
:1046B0000A4382607047002905D0426801231B0528
:1046C0001A43426004E0426801231B059A4342609A
:1046D0007047426803235B059A43426042680A437D
:1046E00042607047C1690122D2039143C1617047A2
:1046F000CA05D20D028570470146888CC005C00DE1
:10470000704742681202120A426042680B061A435E
:1047100042607047002905D0026801235B031A43F9
:10472000026004E0026801235B039A430260704761
:1047300002680123DB029A43026002680A430260B6
:104740007047426810239A43426042680A434260BD
:104750007047426820239A43426042680A4342609D
:104760007047002905D0426801239B031A43426029
:1047700004E0426801239B039A434260704700298A
:1047800004D0826808231A43826003E08268082309
:104790009A4382607047028AD2B20282028A0B0276
:1047A0001A4302827047002904D0826820231A43EA
:1047B000826003E0826820239A4382607047002968
:1047C00004D0826810231A43826003E082681023B9
:1047D0009A4382607047826807235B049A43826031
:1047E00082684B041A438260704742691202120ABF
:1047F000426142690B061A4342617047003801402A
:1048000000440040F3E9FFFF826804239A4382607A
:1048100082680A4382607047002904D082680223BC
:104820001A43826003E0826802239A4382607047E1
:10483000002905D0826801239B031A43826004E0AB
:10484000826801239B039A43826070478268012338
:10485000DB039A43826082680A4382607047026881
:104860001F235B059A43026002684B051A430260EE
:10487000704702681F231B049A43026002680B04FE
:104880001A4302607047002A03D083680B43836099
:1048900002E083688B4383607047826801235B0377
:1048A0009A43826082680A4382607047F8B5034683
:1048B0000024002600960025002018460E04340E21
:1048C000CEB200960127009EB7403D46022C01D192
:1048D000001D02E0032C00D10830002A03D0066836
:1048E0002E43066002E00668AE430660F8BD002A6B
:1048F00003D0038B0B43038302E0038B8B430383BF
:104900007047826801231B039A43826082680A43CE
:104910008260704702460020D3690B4201D001201B
:1049200000E0002070470162704770B502460B46F8
:1049300000240021002500201E04350ED9B20126D6
:104940008E403146012D02D11668314006E0022D1D
:1049500002D15668314001E0966831401C0C0126B6
:10496000A6403446D6693440002903D0002C01D03B
:10497000012000E0002070BD10B5002300220B0CC8
:1049800001249C402246026210BD70470FB40549C5
:1049900010B503AA029800F09DFA10BC08BC04B040
:1049A000184700002800002070B50446856900689B
:1049B000C10601D5302600E02026C00707D070BD13
:1049C00062683046A1689047206A401C20626D1ED4
:1049D000F6D570BD70B5044685690078C00707D16B
:1049E00070BD6268A16820209047206A401C206248
:1049F0006D1EF6D570BD70B50C460546012A05D072
:104A00002878800600D5EA69002302E0012305E04A
:104A10005B1C934202D2E05C0028F9D1A869E61839
:104A2000C01AA861286AC01828622846FFF7BCFF90
:104A300004E06A682078A968641C9047B442F8D3FF
:104A40002846FFF7C7FF70BDF7B500257529106828
:104A5000009914A611D0C046C046002802DA404290
:104A600011A608E0009909688A0701D50FA602E09F
:104A7000490704D50EA6012501E0C046C046009FA7
:104A80000024243704E000F039FA30313955641C31
:104A90000028F8D12B4632462146009800F0ABF9A9
:104AA000FEBD0000000000002D0000002B000000F3
:104AB0002000000070B504460D4621461068C0462F
:104AC000C0462188090502D50F4A7A4402E00E4A01
:104AD0007A440E3223460021243305E006070009FC
:104AE000360F965D5E54491C0028F7D120780023CC
:104AF000000705D5702D03D0002901D00223113203
:104B0000204600F078F970BD91280000F3B5044606
:104B1000002081B020622046E1688847002872D0DA
:104B2000252802D06268A168ABE0594F00267F4477
:104B30002046E16888472028054608DB312D06D24B
:104B4000781920380078002801D00643F0E7B00734
:104B500001D5042086430020E0610746A0612A2D8C
:104B60000AD0284600F05DFA002827D0B8000019C6
:104B7000303D0090856119E00298BA00121902C810
:104B8000916102902046E1688847012F054617D1C0
:104B9000E06900281FDA202086431CE000980A21E3
:104BA0008069484300994019303888612046E1689F
:104BB0008847054600F035FA0028EFD1012F0AD0CA
:104BC0002E2D08D12046E16888470546202006435F
:104BD0007F1C022FC3DBA069002803DA4042A061DA
:104BE00001200643F00701D0102086436C2D0BD026
:104BF000682D09D04C2D3CD06A2D38D0742D38D07A
:104C00007A2D36D016E040E0E1682F4620468847EE
:104C1000B842054609D16C2F29D001208002E168F5
:104C2000064320468847054604E06C2F1DD0FF2030
:104C300001300643002D28D028464138192803D8D2
:104C40000120C00206432035204626602946029AEC
:104C50001646FBF765FA002810D001280BD0F61D88
:104C6000F008C0000830029055E74020E1E78020BE
:104C7000D5E70020D3E7361D02964CE76268284648
:104C8000A1689047206A401C44E7206AFEBD0000EE
:104C900055280000002203098B422CD3030A8B42C3
:104CA00011D300239C464EE003460B433CD4002224
:104CB00043088B4231D303098B421CD3030A8B4236
:104CC00001D394463FE0C3098B4201D3CB01C01A04
:104CD000524183098B4201D38B01C01A52414309CF
:104CE0008B4201D34B01C01A524103098B4201D3BD
:104CF0000B01C01A5241C3088B4201D3CB00C01A2A
:104D0000524183088B4201D38B00C01A52414308A1
:104D10008B4201D34B00C01A5241411A00D20146C6
:104D20005241104670475DE0CA0F00D0494203105F
:104D300000D34042534000229C4603098B422DD3AE
:104D4000030A8B4212D3FC22890112BA030A8B4256
:104D50000CD3890192118B4208D3890192118B42A5
:104D600004D389013AD0921100E08909C3098B422A
:104D700001D3CB01C01A524183098B4201D38B016D
:104D8000C01A524143098B4201D34B01C01A524110
:104D900003098B4201D30B01C01A5241C3088B4255
:104DA00001D3CB00C01A524183088B4201D38B0040
:104DB000C01A5241D9D243088B4201D34B00C01ACA
:104DC0005241411A00D20146634652415B101046DF
:104DD00001D34042002B00D54942704763465B1027
:104DE00000D3404201B50020C046C04602BD704716
:104DF000704770477047FFB504460D4681B02430B8
:104E000000902168880604D51022E0699143216052
:104E100000E00120A84201DD471B00E000270498C4
:104E2000A1697A191018081AA0612078C00602D466
:104E30002046FFF7B9FD002608E003986268A168E4
:104E4000805D9047206A401C761C20620498864250
:104E5000F3DB2078C0060AD52046FFF7A5FD06E063
:104E60006268A16830209047206A401C2062384662
:104E70007F1E0028F4DC07E000986268A168405DAE
:104E80009047206A401C206228466D1E0028F3DCF3
:104E90002046FFF79FFD2078000602D5022005B0CE
:104EA000F0BD0120FBE710B54369002B02D0C046DE
:104EB000C04601E0FFF79FFD012010BD12780146BA
:104EC00024310A7000224A700122ECE711680022A6
:104ED000D243E8E7084B70B50D467B4400F027F855
:104EE0000446284600F036F8002802D00020C043CF
:104EF00070BD204670BD000061BBFFFF0146800809
:104F0000081A02091018020A1018020C1018C0081A
:104F1000820012185200891A01E0401C0A390A293D
:104F2000FBD2704701694A1C02610878704700B5DE
:104F30008FB00291002105910549019379440391B5
:104F4000114604906846FFF7E1FD0FB000BD000078
:104F5000E5FFFFFFC068802108407047754600F0FC
:104F600023F8AE46050069465346C008C000854692
:104F700018B020B5FBF7E4F960BC00274908B64635
:104F80000026C0C5C0C5C0C5C0C5C0C5C0C5C0C558
:104F9000C0C5403D49008D4670470446C046C046E6
:104FA0002046FBF7E8F80000004870473802002070
:104FB00070B58C180578401C6B075B0F01D1037826
:104FC000401C2A1106D10278401C03E00678401CE0
:104FD0000E70491C5B1EF9D12B0705D40023521E0D
:104FE0000DD40B70491CFAE70378401CCB1A921CB5
:104FF00003E01D780D70491C5B1C521EF9D5A142BF
:10500000D8D3002070BD30B47446641E2578641C6B
:10501000AB4204D3635D5B00E31830BC18471D4608
:10502000F8E730380A2801D2012070470020704785
:105030000000000000000000000000000000000070
:1050400000101010101010101010000010100000B0
:1050500000006C6C2424000000000100000000002F
:105060000024242424FE48484848FC909090900056
:1050700000103C5492905038141212925478100040
:105080000000225C94A8481010242A525488000082
:10509000000030484850206E54948C888A74000078
:1050A0000000303010100000000000000000000080
:1050B00000040810102020202020201010080400D8
:1050C0000080402020101010101010202040800080
:1050D0000000000010543810385410000000000088
:1050E00000000010101010FE101010100000000042
:1050F0000000000000000000000000001010200070
:1051000000000000000000FE0000000000000000A1
:10511000000000000000000000000000101000006F
:105120000000040408081010202040408080000087
:105130000000384482828282828282824438000067
:10514000000010701010101010101010107C0000D3
:1051500000003844828204081020408284FC000051
:1051600000003844820204380402028244380000FD
:105170000000040C141424244444FE04040E000013
:105180000000FC808080B8C4820202828478000023
:1051900000003C428280B8C482828282443800008F
:1051A00000007E428204040808081010101000005D
:1051B00000003844828244384482828244380000AD
:1051C0000000384482828282463A028244380000DB
:1051D000000000001010000000001010000000008F
:1051E000000000001010000000000010102000005F
:1051F0000000000006186080601806000000000033
:10520000000000000000FE0000FE000000000000A2
:1052100000000000C0300C020C30C0000000000094
:1052200000384482820204081010100010100000A0
:1052300000003844829AAAAAAAAAAA9680423C00F0
:10524000000010101028282844447C4444EE00003C
:105250000000FC424242427C4242424242FC000088
:1052600000003C448280808080808282443800003C
:105270000000F844424242424242424244F80000A6
:105280000000FC444240447C4440404244FC000056
:105290000000FC444240447C4440404040F0000058
:1052A0000000344C828080808E8484844C340000E2
:1052B0000000EE444444447C4444444444EE000032
:1052C00000007C101010101010101010107C000046
:1052D00000003E08080808080808088888700000D0
:1052E0000000EE44484850605048484444EE0000F6
:1052F0000000E040404040404040404244FC00004C
:105300000000C6446C6C6C545454444444EE000099
:105310000000CE4464646454544C4C4C44E400009B
:105320000000384482828282828282824438000075
:105330000000F844424242447840404040E00000CF
:105340000000384482828282828282BA443C020017
:105350000000F048444444487048444444E6000097
:1053600000003C44828040300C02028244780000FD
:1053700000007C5492101010101010101038000013
:105380000000EE444444444444444444443800004F
:105390000000EE444444442828282810101000003F
:1053A0000000EE4454545454545428282828000033
:1053B0000000EE44442828101028284444EE000041
:1053C0000000EE4444282828101010101038000067
:1053D00000007E44840808102020408284FC0000E5
:1053E000001C1010101010101010101010101C00C5
:1053F0000000EE445454FE54545428282828000039
:1054000000701010101010101010101010107000FC
:105410000030488400000000000000000000000090
:105420000000000000000000000000000000FE007E
:10543000004020000000000000000000000000000C
:105440000000000000007884047C84848C760000D6
:105450000000C0404040586442424242645800004C
:105460000000000000003844808080804438000044
:1054700000000C040404344C848484844C36000002
:10548000000000000000788484FC808084780000A4
:10549000000018242020F820202020202070000068
:1054A0000000000000003A444478807C82827C0046
:1054B0000000C040404058644444444444EE00006E
:1054C00000001010000030101010101010380000F4
:1054D000000010100000301010101010109060002C
:1054E0000000C04040405C485060504844EE00001E
:1054F00000003010101010111010101010390000A2
:10550000000000000000ACD29292929292D600006D
:1055100000000000000058E44444444444EE00000D
:10552000000000000000384482828282443800007B
:10553000000000000000D864424242645840E0008D
:10554000000000000000364C8484844C34040E00BB
:105550000000000000006C3020202020207000009F
:1055600000000000000078888460188444780000FF
:10557000000000202020F8202020202024180000F7
:10558000000000000000C64242424242463A00008B
:10559000000000000000EE444428282810100000FD
:1055A000000000000000EE44445454282828000065
:1055B000000000000000EE442810102844EE000017
:1055C000000000000000EE444428281010A0C00095
:1055D0000000000000007E448810204284FC00008F
:1055E000000C1010101010601010101010100C0093
:1055F00000101010101010101010101010101000CB
:1056000000C0202020202018202020202020C000A2
:1056100000000000000000728C000000000000008C
:105620000000000000001FE000003FF000003FF01D
:1056300000001FE0000180060003C00F0003C00F40
:105640000003C00F0003C00F0003C00F0003C00F12
:105650000003C00F0003C00F0003000300000000A0
:105660000000000000000000000300030003C00F62
:105670000003C00F0003C00F0003C00F0003C00FE2
:105680000003C00F0003C00F0003C00F000180061D
:1056900000001FE000003FF000003FF000001FE0AE
:1056A00000000000000000000000008000000180F9
:1056B00000000380000007800000078000000780D2
:1056C00000000780000007800000078000000780BE
:1056D000000007800000078000000180000000003B
:1056E00000000000000000000000018000000780B2
:1056F000000007800000078000000780000007808E
:10570000000007800000078000000780000007807D
:105710000000038000000180000000800000000005
:105720000000000000001FE000003FF00000FFF05C
:105730000001FFE0000000060000000F0000000F65
:105740000000000F0000000F0000000F0000000F1D
:105750000000000F0000000F00001FE300007FF8B2
:1057600000007FF800001FE0000300000003C000FD
:105770000003C0000003C0000003C0000003C0001D
:105780000003C0000003C0000003C000000180004F
:1057900000001FF000003FF800003FFC00001FFE6B
:1057A000000000000003FF800001FFC00000FFC0F8
:1057B00000007F80000000180000003C0000003C5A
:1057C0000000003C0000003C0000003C0000003CE9
:1057D0000000003C0000003C00007F8C0001FFE066
:1057E0000001FFF000007F800000000C0000003C82
:1057F0000000003C0000003C0000003C0000003CB9
:105800000000003C0000003C0000003C00000018CC
:1058100000007F800000FFC00001FFC00003FF8088
:10582000000000000000000000020001000300036F
:10583000000380070003C00F0003C00F0003C00F68
:105840000003C00F0003C00F0003C00F0003C00F10
:105850000003C00F0003C00F00031FE300007FF828
:1058600000007FFC00001FE0000000030000000FAC
:105870000000000F0000000F0000000F0000000FEC
:105880000000000F0000000F0000000F0000000FDC
:1058900000000007000000030000000100000000FD
:1058A0000000000000001FFC00003FF800003FF077
:1058B00000001FE0000180000003C0000003C000E2
:1058C0000003C0000003C0000003C0000003C000CC
:1058D0000003C0000003C00000031FE000007FF8C9
:1058E00000007FF800001FE0000000030000000F30
:1058F0000000000F0000000F0000000F0000000F6C
:105900000000000F0000000F0000000F0000000664
:1059100000003FE000007FF00000FFF00001FFE02A
:105920000000000000001FFC00003FF800003FF0F6
:1059300000001FE0000180000003C0000003C00061
:105940000003C0000003C0000003C0000003C0004B
:105950000003C0000003C00000031FE000007FF848
:1059600000007FFC00001FE0000300030003C00FE5
:105970000003C00F0003C00F0003C00F0003C00FDF
:105980000003C00F0003C00F0003C00F000180061A
:1059900000001FE000003FF000003FF000001FE0AB
:1059A000000000000007FFE00003FFC00001FF88C7
:1059B0000000FF18000000380000007800000078A8
:1059C00000000078000000780000007800000078F7
:1059D00000000078000000780000001800000000BF
:1059E0000000000000000000000000180000007827
:1059F00000000078000000780000007800000078C7
:105A000000000078000000780000007800000078B6
:105A1000000000380000001800000008000000002E
:105A20000000000000001FE000003FF000003FF019
:105A300000001FE0000180060003C00F0003C00F3C
:105A40000003C00F0003C00F0003C00F0003C00F0E
:105A50000003C00F0003C00F00031FE300007FF826
:105A600000007FFC00001FE0000300030003C00FE4
:105A70000003C00F0003C00F0003C00F0003C00FDE
:105A80000003C00F0003C00F0003C00F0001800619
:105A900000001FE000003FF000003FF000001FE0AA
:105AA0000000000000001FE000003FF000003FF099
:105AB00000001FE0000180060003C00F0003C00FBC
:105AC0000003C00F0003C00F0003C00F0003C00F8E
:105AD0000003C00F0003C00F00031FE300007FF8A6
