:10035A00E4FDFCC3ED9FEC9E5015E4FBFA0BBB00D9
:0F036A00010ABA09F8BBC4F50DBD00010C80E40F
:010379002261
:10027900C280C2828F20A2079295C297D297A20606
:100289009295C297D297A2059295C297D297A20446
:100299009295C297D297A2039295C297D297A2023A
:1002A9009295C297D297A2019295C297D297A2002E
:0902B9009295C297D297D28022DF
:04022C00120279FF42
:10023000C280D2828F20A2079295C297D297A2063F
:100240009295C297D297A2059295C297D297A2048F
:100250009295C297D297A2039295C297D297A20283
:100260009295C297D297A2019295C297D297A20077
:090270009295C297D297D2802228
:10019B00C280D2828F20A2079295C297D297A206D5
:1001AB009295C297D297A2059295C297D297A20425
:1001BB009295C297D297A2039295C297D297A20219
:1001CB009295C297D297A2019295C297D297A2000D
:1001DB009295C297D297D280C280D2828D20A207ED
:1001EB009295C297D297A2069295C297D297A205E3
:1001FB009295C297D297A2049295C297D297A203D7
:10020B009295C297D297A2029295C297D297A201CA
:10021B009295C297D297A2009295C297D297D2800D
:01022B0022B0
:10000300C2817F647E0012035AD28112035A7F1188
:10001300120279E4FF1202307FCF12022C7FC11249
:1000230002307F301202307FED1202797F641202B8
:10003300307F031202307F121202307F81120230AE
:100043007FE81202797F851202307F111202307F1E
:10005300781202307FF61202797F011202307F306C
:10006300120230FF1202307FCB1202797F39120263
:10007300307F2C120230FF1202307F341202307FA5
:10008300051202307FF71202797F201202307FEAD5
:1000930012022C1202307FC01202797F201202302A
:1000A3007FC11202797F111202307FC51202797F5C
:1000B300311202307F3C1202307FC71202797FA9CE
:1000C3001202307F3A1202797F551202307F3612C4
:1000D30002797F481202307FB112022C7F1812027C
:1000E300307FB412022C1202307FF212022C7F26D0
:1000F3001202797F011202307FE01202797F0F1220
:1001030002307F171202307F141202307F0912026D
:10011300307F0C1202307F061202307F431202300E
:100123007F751202307F361202307F081202307F51
:10013300131202307F051202307F101202307F0B40
:100143001202307F081202307FE112022C7F1F124D
:1001530002307F231202307F031202307F0E12021D
:10016300307F041202307F391202307F25120230B1
:100173007F4D1202307F061202307F0D1202307F54
:100183000B1202307F331202307F371202307F0F9F
:080193001202307F29020279FB
:100334008E0C8F0DAB05AA047F2A120279E50CFFFF
:10034400AD0D12019B7F2B120279AF02AD03120196
:060354009B7F2C020279E0
:0402FE007C007E0002
:080302008E088F098C0A8D0B97
:10030A00E4FDFCFFFE120334E4FBFA900000AF099F
:10031A00AD0B12019BA3E58264F0458370F00BBB21
:09032A0000010ABA01E5BB40E242
:0103330022A7
:1002C2001200031200007D107F841202FE7DFF7F68
:1002D200FF1202FEE4FDFCFFFE120302E4FDFC7FBE
:1002E200F8FE1203027DE07C007F077E001203020B
:0C02F2007D1F7C00E4FFFE12030280C7A9
:0300000002037A7E
:0C037A00787FE4F6D8FD7581200202C2F5
:00000001FF
