:100000000C94F4000C940D010C940D010C940D0152
:100010000C940D010C940D010C940D010C940D0128
:100020000C940D010C940D010C940D010C940D0118
:100030000C940D010C940D010C940D010C940D0108
:100040000C940D010C940D010C940D010C940D01F8
:100050000C940D010C940D010C940D010C940D01E8
:100060000C940D010C940D010C940D010C940D01D8
:100070000C940D010C940D010C940D010C940D01C8
:100080000C940D010C940D010C940D010C940D01B8
:100090000C940D010C940D010C940D010C940D01A8
:1000A0000C940D010C940D010C940D010C940D0198
:1000B0000C940D010C940D010C940D010C940D0188
:1000C0000C940D010C940D010C940D010C940D0178
:1000D0000C940D010C940D010C940D010C940D0168
:1000E0000C940D010C940D010C940D010C940D0158
:1000F0000C940D010C940D010C940D010C940D0148
:100100000C940D010C940D010C940D010C940D0137
:100110000C940D010C940D010C940D010C940D0127
:100120000C940D010C940D010C940D010C940D0117
:100130000C940D010C940D010C940D010C940D0107
:100140000C940D010C940D010C940D010C940D01F7
:100150000C940D010C940D010C940D010C940D01E7
:100160000C940D010C940D010C940D010C940D01D7
:100170000C940D010C940D010C940D010C940D01C7
:100180000C940D010C940D010C940D010C940D01B7
:100190000C940D010C940D010C940D010C940D01A7
:1001A0000C940D010C940D010C940D010C940D0197
:1001B0000C940D010C940D010C940D010C940D0187
:1001C0000C940D010C940D010C940D010C940D0177
:1001D0000C940D010C940D010C940D010C940D0167
:1001E0000C940D010C940D0111241FBECFEFDFE321
:1001F000DEBFCDBF00E00CBF1AE3A0E0B0E2E6EF47
:10020000F8E100E00BBF02C007900D92AC31B107DE
:10021000D9F70E9427030C94790C0C94000080916C
:10022000500082608093500080E060E00E94EE0AFF
:100230008091510081FFFCCF81E00E94F40A089573
:100240000F931F938DE79FEE0E94BC0580E190E025
:1002500060E070E04FE150E02DE73FEE00E010E29B
:100260000E94EC0880E190E064E170E040E058EF2B
:100270002DE73FEE0DE010E20E94EC088FE090E0E9
:1002800066E270E041E750E02AE330E00E949A081D
:1002900080E190E068E270E040EE5FEF2DE73FEE36
:1002A0000AE110E20E94EC088FE090E064E470E064
:1002B00041E750E028E530E00E944F0880E190E0FF
:1002C00066E470E04FE150E02DE73FEE07E210E218
:1002D0000E94EC088FE090E062E670E041E750E0B9
:1002E00026E730E00E944F0880E190E064E670E08D
:1002F00040E058EF2DE73FEE04E310E20E94EC08E7
:100300008FEF97EAA1E681509040A040E1F700C04E
:1003100000000091282184E690E06DE770E040E065
:1003200058EF2DE73FEE10E00E94420A8FEF97EA68
:10033000A1E681509040A040E1F700C0000000918C
:10034000272184E690E06DE770E040E058EF2DE76C
:100350003FEE0E94420A8FEF97EAA1E6815090405B
:10036000A040E1F700C000000091262184E690E063
:100370006DE770E040E058EF2DE73FEE0E94420A43
:100380008FEF97EAA1E681509040A040E1F700C0CE
:1003900000000091252184E690E06DE770E040E0E8
:1003A00058EF2DE73FEE0E94420A8FEF97EAA1E651
:1003B00081509040A040E1F700C00000009124214E
:1003C00084E690E06DE770E040E058EF2DE73FEE07
:1003D0000E94420A8FEF97EAA1E681509040A04028
:1003E000E1F700C000000091232184E690E06DE772
:1003F00070E040E058EF2DE73FEE0E94420A1F9167
:100400000F910895EF92FF920F931F93CF93DF9375
:100410008DE79FEE0E94BC0580E190E064E170E012
:1004200040E058EF2DE73FEE01E410E20E94EC08B7
:100430008FEF97EAA1E681509040A040E1F700C01D
:1004400000008DE79FEE0E94BC05C4E2D1E2FF24CC
:1004500093E0E92E09918F2D6E2D0E946D0C682F6F
:1004600070E085E0660F771F8A95E1F7625E7F4F47
:10047000A8E29A9FC001112440E058EF2DE73FEE1B
:1004800010E00E94420A8FEF93ECA9E08150904067
:10049000A040E1F700C00000F3949F2D9A30D1F600
:1004A0008FEF97EAA1E681509040A040E1F700C0AD
:1004B0000000DF91CF911F910F91FF90EF90089571
:1004C0000F931F938DE79FEE0E94BC0580E190E0A3
:1004D0006AE070E04FE150E02DE73FEE0AE410E201
:1004E0000E94EC088FEF97EAA1E681509040A0406F
:1004F000E1F700C000008FEF9FEF0E94BC0580E095
:1005000090E06AE070E040E058EF2FEF3FEF0DE53C
:1005100010E20E94EC0880E090E06EE170E040E0C4
:1005200058EF2FEF3FEF0DE710E20E94EC0880E05C
:1005300090E064E670E040EE57E02FEF3FEF0CE90B
:1005400010E20E94EC0880E090E068E770E040E094
:1005500058EF20EE3FEF03EB10E20E94EC0880E042
:1005600090E06CE870E040E058EF20EE3FEF0CECDC
:1005700010E20E94EC0880E090E060EA70E040E069
:1005800058EF20EE3FEF08EE10E20E94EC0880E00A
:1005900090E064EB70E04FE150E02FEF3FEF0DEFA4
:1005A00010E20E94EC088FEF93E2A4EFB0E08150DC
:1005B0009040A040B040D9F700C000001F910F91BB
:1005C00008950F931F938DE79FEE0E94BC0584E171
:1005D00090E06AE070E04FE150E02DE73FEE0EE082
:1005E00011E20E94EC088FEF97EAA1E6815090405B
:1005F000A040E1F700C000008FEF9FEF0E94BC0514
:1006000080E090E00E94BC0580E098EF0E94BC056D
:1006100080EE97E00E94BC058FE190E00E94BC054F
:100620008FEF9FEF0E94BC0580E090E00E94BC0528
:1006300080E098EF0E94BC0580EE97E00E94BC0528
:100640008FE190E00E94BC051F910F910895AF9239
:10065000CF92EF920F931F93DF93CF93CDB7DEB777
:100660002797CDBFDEBF0E940F0180916006806B8F
:100670008093600680916406806BE0E6F6E08483F8
:10068000809160068F7B80936006CE01019660ECBE
:1006900079E040E656E020E000E0EE24CC24AA24F5
:1006A0000E94380B00E216E0809120068F60809354
:1006B0002006809124068F60D80114968C9380E8E0
:1006C00080934006E0E4F6E084830E942B048FEFE1
:1006D0009FEF0E94BC05809124068160F80184830D
:1006E0000E942B048FEF9FEF0E94BC058FEF97EACB
:1006F000A1E681509040A040E1F700C000000E94B8
:1007000020018FEF9FEF0E94BC058FEF97EAA1E6D3
:1007100081509040A040E1F700C000000E942B04EF
:100720000E94E1028FEF9FEF0E94BC058FEF97EAD6
:10073000A1E681509040A040E1F700C000000E9477
:100740002B040E9402028FEF9FEF0E94BC058FEFE7
:1007500097EAA1E681509040A040E1F700C0000078
:100760000E942B040E9460028FEF9FEF0E94BC0545
:100770008FEF97EAA1E681509040A040E1F700C0DA
:1007800000000E942B048AE090E062E370E04FE1F9
:1007900050E02DE73FEE09E111E20E94EC088FEFF7
:1007A0009FEF0E94BC058FEF97EAA1E68150904031
:1007B000A040E1F700C0000093CFE0ECF9E08383B4
:1007C0008091C20987FFFCCF8091C3090895CF9320
:1007D000DF93C0E2D6E09C819D7F9C839C819B7FC0
:1007E0009C830E94DD038C8182608C83DF91CF919A
:1007F0000895CF93DF93C0E2D6E09C819D7F9C83D8
:100800009C8194609C830E94DD038C8182608C8338
:10081000DF91CF910895DF93CF930F92CDB7DEB7DD
:1008200069830E94F9036981862F0E94F9030F9062
:10083000CF91DF910895DF93CF930F92CDB7DEB7BD
:1008400069830E94E7036981862F0E94E7030F9066
:10085000CF91DF910895E0E2F6E08481877F848381
:100860008FEF93ECA9E081509040A040E1F700C0E9
:1008700000008481886084838FEF91EEA4E0815032
:100880009040A040E1F700C000008BEC0E94E7031D
:1008900089E30E94F9038CE20E94F90380E00E9440
:1008A000F90384E30E94F90382E00E94F9038FECCC
:1008B0000E94E70380E00E94F90381EC0E94F903A3
:1008C00080E30E94F90388EE0E94E70385E80E9416
:1008D000F90380E00E94F90388E70E94F9038AEE99
:1008E0000E94E70380E00E94F90380E00E94F90380
:1008F0008DEE0E94E70384E60E94F90383E00E94E4
:10090000F90382E10E94F90381E80E94F90387EF6D
:100910000E94E70380E20E94F90380EC0E94E70353
:1009200083E20E94F90381EC0E94E70380E10E94C8
:10093000F90385EC0E94E7038EE30E94F90388E245
:100940000E94F90387EC0E94E70386E80E94F903FE
:1009500086E30E94E70388E40E94F9038AE30E9489
:10096000E70385E50E94F90381EB0E94E70380E03D
:100970000E94F90388E10E94F90386EB0E94E703D5
:1009800088E00E94F90382E80E94F90387E20E944E
:10099000F90382EF0E94E70380E00E94F90386E2F8
:1009A0000E94E70381E00E94F90380EE0E94E703C2
:1009B0008FE00E94F90381E30E94F9038BE20E9419
:1009C000F9038CE00E94F9038EE00E94F90388E0AD
:1009D0000E94F9038EE40E94F90381EF0E94F9035B
:1009E00087E30E94F90387E00E94F90380E10E94F7
:1009F000F90383E00E94F9038EE00E94F90389E085
:100A00000E94F90380E00E94F90381EE0E94E7034F
:100A100080E00E94F9038EE00E94F90384E10E94C5
:100A2000F90383E00E94F90381E10E94F90387E062
:100A30000E94F90381E30E94F90381EC0E94F9030B
:100A400088E40E94F90388E00E94F9038FE00E9485
:100A5000F9038CE00E94F90381E30E94F90386E325
:100A60000E94F9038FE00E94F90381E10E94E703ED
:100A70008FEF97EBABE081509040A040E1F700C0D2
:100A8000000089E20E94E7038CE20E94E7030895D8
:100A90000F931F93DF93CF9300D000D0CDB7DEB775
:100AA000182F062F8AE22D833E834A835B837C8343
:100AB00099830E94E7039981892F612F0E940B047B
:100AC0005B81852F4A81642F0E940B048BE20E9478
:100AD000E7037C81872F602F0E940B043E81832FC8
:100AE0002D81622F0E940B048CE20E94E703269660
:100AF000CDBFDEBFCF91DF911F910F9108950F936E
:100B00001F93DF93CF930F920F92CDB7DEB7182FBD
:100B1000062F8AE27A8399830E94E7039981892FBD
:100B2000612F0E940B048BE20E94E7037A81872FDA
:100B3000602F0E940B048CE20E94E7030F900F903D
:100B4000CF91DF911F910F910895DF93CF930F9273
:100B50000F92CDB7DEB74A8359830E947F05598132
:100B6000852F0E94F9034A81842F0E94F9030F9078
:100B70000F90CF91DF910895EF92FF920F931F9303
:100B8000CF93DF938C0180E090E060E070E04FEE67
:100B900050E02FE331E00E944805809124068460F4
:100BA000E0E2F6E08483C0E4D1E00EC0812F0E9431
:100BB000DD03802F0E94DD030894E108F108E114B1
:100BC000F104A1F7219721F080EFE82EF12CEECF70
:100BD000DF91CF911F910F91FF90EF9008952F9289
:100BE0003F924F925F926F927F928F929F92AF92BD
:100BF000BF92CF92DF92EF92FF920F931F93DF93FA
:100C0000CF9300D00F92CDB7DEB74C015B017901D5
:100C1000CA01880F991F23E030E0281B390B6A01B5
:100C20006624772400E010E06DC02801480C591CB0
:100C3000C6018A0D9B1D8B839C83C2016B817C81C5
:100C4000A70129833A830E94A5051401201A310ABD
:100C5000C1016B817C81A7010E94A505F501EC19FA
:100C6000FD09EB83FC83C201BF01A7010E94A5051A
:100C7000C1016B817C81A7010E94A5052601480C5A
:100C8000591CC8018A0D9B1D8B839C83C2016B81FB
:100C90007C81A7010E94A50514012C183D08C10103
:100CA0006B817C81A7010E94A505F501E01BF10B7A
:100CB000EB83FC83C201BF01A7010E94A505C1010E
:100CC0006B817C81A7010E94A50529813A8137FFAC
:100CD00005C0260D371D2A5F3F4F0EC0265F3F4FD0
:100CE000C8018C199D09880F991F880F991F280F1B
:100CF000391F0894C108D1080F5F1F4F84E090E0AE
:100D0000680E791E0C151D0508F48FCF0C151D05F6
:100D100091F56801C80CD91C38016A0C7B1CC6010E
:100D2000B301A7010E94A505C601B301A7010E9456
:100D3000A505A01AB10AC601B501A7010E94A50523
:100D4000801A910AC401B501A7010E94A505C60138
:100D5000B301A7010E94A505C401B301A7010E9428
:100D6000A505C601B501A7010E94A505C401B501ED
:100D7000A7010E94A5052496CDBFDEBFCF91DF91CC
:100D80001F910F91FF90EF90DF90CF90BF90AF90A9
:100D90009F908F907F906F905F904F903F902F909B
:100DA00008952F923F924F925F926F927F928F920F
:100DB0009F92AF92BF92CF92DF92EF92FF920F93EA
:100DC0001F93DF93CF9300D00F92CDB7DEB74C01C6
:100DD0005B016A01790109831A830E947F05C818A3
:100DE000D908EA18FB08D7FE08C0D094C194D108EE
:100DF000D39422242A94322C03C0A1E02A2E312C31
:100E0000F7FE08C0F094E194F108F39444244A9466
:100E1000542C03C0F1E04F2E512C9601220F331FAA
:100E20003701660C771CEC14FD04FCF47301EC181C
:100E3000FD0800E010E0C401B50149815A812B830F
:100E40003C830E94A5052B813C81F7FC04C0E21A7B
:100E5000F30AA40CB51C0F5F1F4FC016D10624F176
:100E6000E60CF71C820C931CE6CF6901CE18DF0854
:100E700000E010E0C401B50149815A812B833C8315
:100E80000E94A5052B813C81D7FC04C0C618D70859
:100E9000820C931C0F5F1F4FE016F1062CF0C20E60
:100EA000D31EA40CB51CE6CF2496CDBFDEBFCF91D8
:100EB000DF911F910F91FF90EF90DF90CF90BF9047
:100EC000AF909F908F907F906F905F904F903F90EA
:100ED0002F9008954F925F926F927F928F929F9280
:100EE000AF92BF92CF92DF92EF92FF920F931F9338
:100EF000CF93DF937C015B016A01E9013801C80EE1
:100F0000D91EA60195010DE71FEE0E94D10625010D
:100F10000894411C511C4601089481089108CA0D8F
:100F2000DB1D9E012F5F3F4FC401B201A40105E606
:100F300019E20E94D106C701BE01A6019E010E94CE
:100F4000D106C701B501A7019E010DE71FEE0E9462
:100F5000D1069E0121503040C7010196B201A40183
:100F600083010E94D106DF91CF911F910F91FF90D5
:100F7000EF90DF90CF90BF90AF909F908F907F9039
:100F80006F905F904F900895AF92BF92CF92DF9293
:100F9000EF92FF920F931F93CF93DF937C01EB01AE
:100FA0005A016901002329F5A80EB91EA5019E0169
:100FB0000DE71FEE0E94D106A50141505040CC0E16
:100FC000DD1EBE016F5F7F4F96012F5F3F4FCA014D
:100FD00005E619E20E94D106C701B601A5019601F6
:100FE0000E94D106C701BE01A70196010DE71FEEC1
:100FF00049C0013029F5A80EB91EA5019E0105E6DC
:1010000019E20E94D106A50141505040CC0EDD1ED0
:10101000BE016F5F7F4F96012F5F3F4FCA010DE703
:101020001FEE0E94D106C701B601A50196010E94DC
:10103000D106C701BE01A701960105E619E222C04B
:10104000023011F5A80EB91EA5019E010FEF1FEF8A
:101050000E94D106A50141505040CC0EDD1EBE01BC
:101060006F5F7F4F96012F5F3F4FCA010E94D106ED
:10107000C701B601A50196010E94D106C701BE01B4
:10108000A70196010E94D106DF91CF911F910F9188
:10109000FF90EF90DF90CF90BF90AF900895AF9208
:1010A000BF92CF92DF92EF92FF920F931F93CF9355
:1010B000DF936C015B01EA01790195010FEF1FEFEE
:1010C0000E94D106C601B501A60197010E94D10672
:1010D000970121503040C6010196B901AE0100E1EF
:1010E00014E80E94D106C601B701AE01970108E0DD
:1010F00012E40E94D106AE0141505040B5016F5F2D
:101100007F4FCA01970100E114E80E94D106CE0189
:10111000B501AE01970108E012E40E94D106DF910B
:10112000CF911F910F91FF90EF90DF90CF90BF90E4
:10113000AF9008956F927F928F929F92AF92BF92DD
:10114000CF92DF92EF92FF920F931F93CF93DF9393
:101150007C016B015A014901960108E012E40E94EA
:10116000D10637010894611C711CE6012196C30168
:10117000BE01A5019E0100E114E80E94D106C7014D
:10118000B601A701940108E012E40E94D106C30150
:10119000BE01A301940100E114E80E94D106C70139
:1011A000B401A50194010FEF1FEF0E94D106C50104
:1011B000B601A50194010E94D106DF91CF911F9144
:1011C0000F91FF90EF90DF90CF90BF90AF909F90E6
:1011D0008F907F906F9008952F923F924F925F92E1
:1011E0006F927F928F929F92AF92BF92CF92DF9237
:1011F000EF92FF920F931F93DF93CF93CDB7DEB79C
:101200002F97CDBFDEBF888799876B837C831A01B8
:101210003901982F8985492F582F9A0118C187FDC8
:101220006DC090E08D30910561F42B813C81205F91
:101230003F4F2B833C8398858985492F582F9A01EE
:101240005AC08132910510F0809702C080E090E092
:101250007C0184E0EE0CFF1C8A95E1F78DE291E2BF
:10126000E80EF91EEB81FC817096E983FA83CB804E
:10127000DC805901480134C080E890E0002E02C0B3
:10128000959587950A94E2F784219521009751F06E
:10129000C901B601A1012E873F870E94A5052E85B1
:1012A0003F850CC02614370449F0C901B601A301DB
:1012B0002E873F870E94A5053F852E850F5F1F4F14
:1012C0002F5F3F4F08301105B9F60894C11CD11C9F
:1012D0000894E11CF11C29813A81C216D30639F029
:1012E000950100E010E0F70140805524C5CF95013D
:1012F0008401285F3F4F0F5F1F4FA9C0BFE94B2EEE
:10130000BEE25B2E19821A82C90108968A879B87E2
:1013100049015801F2019081F5018081981709F087
:1013200083C0F2019181F5018181981709F07CC099
:10133000E980FA8023E230E0E29EA001E39E500DB6
:10134000F29E500D11244E55514D0B811C811D8272
:101350005FC080E890E00C2C02C0959587950A94B8
:10136000E2F7EE81FF818E239F23009721F0C701D2
:10137000B801A10106C02614370429F0C701B8013D
:10138000A3010E94A5050894C11CD11C0894E11C6E
:10139000F11CF8E0CF16D104E1F64C855D85EA84B6
:1013A000FB84CC24DD24FA018181282F30E02E83B8
:1013B0003F8380E890E00C2C02C0959587950A94B5
:1013C000E2F7EE81FF818E239F23009721F0C70172
:1013D000B801A10106C02614370429F0C701B801DD
:1013E000A3010E94A5050894C11CD11C0894E11C0E
:1013F000F11CF8E0CF16D104E1F64C855D852D8116
:101400002F5F2D830F5F1F4F4E5F5F4F203161F0C5
:101410007401CC24DD24FA018081282F30E02E8352
:101420003F834C875D8795CF89819A810196898317
:101430009A83E3E2F0E04E0E5F1E8436910509F0D8
:1014400069CF940185010E5F1F4F205F3F4FF80168
:101450008081882309F0E3CE2F96CDBFDEBFCF91E8
:10146000DF911F910F91FF90EF90DF90CF90BF9091
:10147000AF909F908F907F906F905F904F903F9034
:101480002F9008952F923F924F925F926F927F928A
:101490008F929F92AF92BF92CF92DF92EF92FF9284
:1014A0000F931F93DF93CF9300D000D0CDB7DEB75B
:1014B00089839A836B012A0139011695102F002721
:1014C00017950795AA2420E8222E312C42C0F4015A
:1014D00081914F011D821E82282F30E02B833C8397
:1014E000C1010D8002C0959587950A94E2F7EB81C2
:1014F000FC818E239F23009739F08D819E818E0D74
:101500009F1DB601A20109C04614570441F08D8108
:101510009E818E0D9F1DB601A3010E94A5052D8100
:101520003E812F5F3F4F2D833E8328303105C1F62A
:10153000B39488E090E0E80EF91E9B2D943039F6C4
:10154000A3940C5F1F4F0894C11CD11CEA2DE032FC
:1015500061F09EE1892E97E2992E800E911E99816D
:101560008A81E92EF82EBB24B2CF2696CDBFDEBFEE
:10157000CF91DF911F910F91FF90EF90DF90CF906F
:10158000BF90AF909F908F907F906F905F904F90A3
:101590003F902F9008950F931BBEFC0108ED04BFF0
:1015A00060830F910895662311F090E201C090E0EE
:1015B000842B892BE0E5F0E0828308956F71682B1E
:1015C000E0E5F0E065830895E0E5F0E02081982F04
:1015D000909592239083908189230895682B81E4CC
:1015E00090E00E94CB0A08951F93CF93DF93182FAA
:1015F000C0E4D0E06881687F682B80E490E00E94BE
:10160000CB0A88818123DF91CF911F910895E0E477
:10161000F0E09381917F9160982B938308953091AE
:101620005600282F982F90959323662309F420E0E5
:10163000922BE0E5F0E09683813031F480916800F0
:101640008160809368000895823029F48091600061
:10165000816080936000089583E590E063E00E94DC
:10166000CB0A089582E490E061E00E94CB0A0895DD
:10167000AF92CF92EF920F93CF93DF93FC01EB01E8
:10168000DA016083718342835383148280EB119665
:101690008C93119780E412968C931297CC2011F0C2
:1016A00090E801C090E0222311F080E201C080E0C8
:1016B00000650A29092B082B0883E9821582168206
:1016C00014968C911497806114968C931497DF91E3
:1016D000CF910F91EF90CF90AF900895EF920F932D
:1016E000FC016083718342835383222311F080E6DF
:1016F00001C080E4082BDB010C93A081B18111961D
:10170000EC9211970280F381E02D80E481830F91A8
:10171000EF900895EF920F931F93FC0100831183C4
:10172000E282638374834583568327831086118600
:101730001F910F91EF900895CF93DF93FC01A58146
:10174000B68118968C911897C081D181988194FDAB
:1017500003C091E094832BC09B8115960D90BC91A2
:10176000A02DA80FB11D9C938F5FA581B681179600
:101770009C911797891768F413960D90BC91A02D32
:10178000A80FB11D9C91A081B18113969C931397D2
:101790000EC012969C9112970D90BC91A02D15969B
:1017A0009C93A581B68191E019969C931997058029
:1017B000F681E02D8087DF91CF910895CF93DF935D
:1017C000FC01DB018481C581D681209751F0998588
:1017D000992331F1882329F0C281D3818C8184FF40
:1017E00021C0A583B68319961C921997148212966C
:1017F0008C9112970D90BC91A02D16968C93A5817B
:10180000B68118961C92A581B68113960D90BC9155
:10181000A02D8C910190F081E02D838380E003C0A6
:1018200082E001C081E0DF91CF910895FC016383E4
:10183000828187FFFDCF83810895CF93DF93FC01E1
:10184000DB01109709F445C06583768312963C91BD
:101850001297CD91DC911197209709F03E8317964E
:101860002C91179780E090E01EC013960D90BC91CC
:10187000A02DA80FB91F4C91A081B18113964C9354
:10188000A081B18112964C91129747FFFBCF13961E
:101890004C91A581B68115960D90BC91A02DA80FF5
:1018A000B91F4C930196A581B6818217F0F20D9075
:1018B000BC91A02D109711F015963C93A581B6818F
:1018C00018962C9318970580F681E02D81E081878A
:1018D00001C080E0DF91CF910895991B79E004C0A9
:1018E000991F961708F0961B881F7A95C9F780955F
:0618F0000895F894FFCFFB
:1018F600C8ABB6AFB5E7D7D3BCBCCAF500D2BABE43
:10190600A7B2E2CAD4B3CCD0F200D1D5C9ABCCEEE3
:10191600B3E4B2E2CAD400CEC4D7D6CFD4CABEB2DC
:10192600E2CAD400CDBCC6ACCFD4CABEB2E2CAD4D9
:10193600004E756D205465737400202020CEC4D7E8
:10194600D6CFD4CABEB2E2CAD4202020002020209E
:101956002020C8ABB6AFB5E7D7D3BCBCCAF5D3D049
:10196600CFDEB9ABCBBE20202020202000202020B7
:10197600202020202020514474656368202E2C4CA2
:101986005444202020202020202020002020202019
:1019960020C8ABB3CCBCBCCAF5D6A7B3D620202092
:1019A600202000687474703A2F2F71647465636820
:1019B6002E74616F62616F2E636F6D00452D4D61F0
:1019C600696C3A5144746563683230303840676DEB
:1019D60061696C2E636F6D00BCBCCAF5BDBBC1F7F7
:1019E600C8BA3A3332343832383031360054656C3E
:1019F6003A31353938393331333530382000436F91
:101A06006C6F72205465737400B2E2CAD4B3C9B95C
:101A1600A62E0000010203040506070809000000BF
:101A26000000000000000000000000000000101090
:101A36001010101010101000001010000000006CA4
:101A46006C24240000000001000000000000242493
:101A56002424FE48484848FC909090900000103C92
:101A660054929050381412129254781000000022AA
:101A76005C94A8481010242A5254880000000030B4
:101A8600484850206E54948C888A740000000030B8
:101A960030101000000000000000000000000408E4
:101AA6001010202020202020101008040000804064
:101AB6002020101010101010202040800000000080
:101AC60000105438103854100000000000000000C8
:101AD60010101010FE101010100000000000000082
:101AE60000000000000000000010102000000000B0
:101AF60000000000FE0000000000000000000000E2
:101B060000000000000000000010100000000004AB
:101B16000408081010202040408080000000003893
:101B260044828282828282828244380000000010CF
:101B3600701010101010101010107C0000000038EB
:101B460044828204081020408284FC000000003891
:101B56004482020438040202824438000000000471
:101B66000C141424244444FE04040E00000000FC5B
:101B7600808080B8C4820202828478000000003C23
:101B8600428280B8C4828282824438000000007E8D
:101B960042820404080808101010100000000038E3
:101BA60044828244384482828244380000000038ED
:101BB6004482828282463A02824438000000000053
:101BC60000101000000000101000000000000000CF
:101BD600001010000000000010102000000000009F
:101BE6000006186080601806000000000000000073
:101BF600000000FE0000FE000000000000000000E3
:101C060000C0300C020C30C0000000000000384458
:101C16008282020408101010001010000000003824
:101C260044829AAAAAAAAAAA9680423C0000001058
:101C3600101028282844447C4444EE00000000FC90
:101C4600424242427C4242424242FC000000003C88
:101C5600448280808080808282443800000000F8C0
:101C660044424242424242424244F800000000FCE2
:101C7600444240447C4440404244FC00000000FC96
:101C8600444240447C4440404040F0000000003460
:101C96004C828080808E8484844C3400000000EE68
:101CA600444444447C4444444444EE000000007CE4
:101CB600101010101010101010107C000000003EC4
:101CC600080808080808080888887000000000EE60
:101CD60044484850605048484444EE00000000E044
:101CE60040404040404040404244FC00000000C6A6
:101CF600446C6C6C545454444444EE00000000CED2
:101D06004464646454544C4C4C44E4000000003871
:101D1600448282828282828282443800000000F8F5
:101D260044424242447840404040E00000000038CF
:101D36004482828282828282BA443C02000000F09F
:101D460048444444487048444444E6000000003C8B
:101D560044828040300C0202824478000000007CFD
:101D6600549210101010101010103800000000EEE1
:101D7600444444444444444444443800000000EE8F
:101D8600444444442828282810101000000000EE7F
:101D9600445454545454542828282800000000EE73
:101DA60044442828101028284444EE00000000EE81
:101DB6004444282828101010101038000000007E17
:101DC60044840808102020408284FC0000001C1077
:101DD60010101010101010101010101C000000EE43
:101DE600445454FE545454282828280000007010E7
:101DF6001010101010101010101010700000304845
:101E06008400000000000000000000000000000048
:101E16000000000000000000000000FE000040205E
:101E260000000000000000000000000000000000AC
:101E36000000007884047C84848C7600000000C056
:101E4600404040586442424242645800000000004C
:101E56000000003844808080804438000000000C78
:101E6600040404344C848484844C3600000000004E
:101E7600000000788484FC808084780000000018CC
:101E8600242020F8202020202020700000000000C0
:101E96000000003A444478807C82827C000000C0C6
:101EA60040404058644444444444EE00000000105E
:101EB6001000003010101010101038000000001034
:101EC600100000301010101010109060000000C0BC
:101ED6004040405C485060504844EE0000000030EE
:101EE6001010101011101010101039000000000012
:101EF600000000ACD29292929292D60000000000AE
:101F060000000058E44444444444EE00000000004D
:101F160000000038448282828244380000000000BB
:101F2600000000D864424242645840E000000000CD
:101F3600000000364C8484844C34040E00000000FB
:101F46000000006C302020202020700000000000DF
:101F5600000000788884601884447800000000003F
:101F6600202020F820202020202418000000000037
:101F7600000000C64242424242463A0000000000CB
:101F8600000000EE4444282828101000000000003D
:101F9600000000EE444454542828280000000000A5
:101FA600000000EE442810102844EE000000000057
:101FB600000000EE444428281010A0C000000000D5
:101FC6000000007E448810204284FC0000000C10B3
:101FD60010101010601010101010100C00001010CF
:101FE6001010101010101010101010100000C0204B
:101FF6002020202018202020202020C000000000C3
:1020060000000000728C00000000000000000000CC
:102016000000001FE000003FF000003FF000001F3E
:10202600E0000180060003C00F0003C00F0003C0DC
:102036000F0003C00F0003C00F0003C00F0003C052
:102046000F0003C00F0003000300000000000000A3
:102056000000000000000300030003C00F0003C0DF
:102066000F0003C00F0003C00F0003C00F0003C022
:102076000F0003C00F0003C00F0001800600001F01
:10208600E000003FF000003FF000001FE00000000D
:102096000000000000000000800000018000000336
:1020A600800000078000000780000007800000070E
:1020B60080000007800000078000000780000007FE
:1020C6008000000780000001800000000000000082
:1020D60000000000000000018000000780000007EB
:1020E60080000007800000078000000780000007CE
:1020F60080000007800000078000000780000003C2
:102106008000000180000000800000000000000048
:102116000000001FE000003FF00000FFF00001FF9C
:10212600E0000000060000000F0000000F000000A5
:102136000F0000000F0000000F0000000F0000005D
:102146000F0000000F00001FE300007FF800007F73
:10215600F800001FE0000300000003C0000003C0F9
:10216600000003C0000003C0000003C0000003C05D
:10217600000003C0000003C0000001800000001F33
:10218600F000003FF800003FFC00001FFE000000CA
:10219600000003FF800001FFC00000FFC000007FB9
:1021A60080000000180000003C0000003C00000019
:1021B6003C0000003C0000003C0000003C00000029
:1021C6003C0000003C00007F8C0001FFE00001FFA6
:1021D600F000007F800000000C0000003C000000C2
:1021E6003C0000003C0000003C0000003C000000F9
:1021F6003C0000003C0000003C0000001800007F8E
:10220600800000FFC00001FFC00003FF8000000047
:10221600000000000000020001000300030003802C
:10222600070003C00F0003C00F0003C00F0003C068
:102236000F0003C00F0003C00F0003C00F0003C050
:102246000F0003C00F00031FE300007FF800007FAC
:10225600FC00001FE0000000030000000F0000006B
:102266000F0000000F0000000F0000000F0000002C
:102276000F0000000F0000000F0000000F0000001C
:10228600070000000300000001000000000000003D
:102296000000001FFC00003FF800003FF000001F98
:1022A600E0000180000003C0000003C0000003C07E
:1022B600000003C0000003C0000003C0000003C00C
:1022C600000003C00000031FE000007FF800007F4D
:1022D600F800001FE0000000030000000F000000EF
:1022E6000F0000000F0000000F0000000F000000AC
:1022F6000F0000000F0000000F0000000600003F66
:10230600E000007FF00000FFF00001FFE0000000A9
:102316000000001FFC00003FF800003FF000001F17
:10232600E0000180000003C0000003C0000003C0FD
:10233600000003C0000003C0000003C0000003C08B
:10234600000003C00000031FE000007FF800007FCC
:10235600FC00001FE0000300030003C00F0003C0E1
:102366000F0003C00F0003C00F0003C00F0003C01F
:102376000F0003C00F0003C00F0001800600001FFE
:10238600E000003FF000003FF000001FE00000000A
:10239600000007FFE00003FFC00001FF880000FF08
:1023A60018000000380000007800000078000000E7
:1023B6007800000078000000780000007800000037
:1023C60078000000780000001800000000000000FF
:1023D6000000000000000000180000007800000067
:1023E6007800000078000000780000007800000007
:1023F60078000000780000007800000078000000F7
:10240600380000001800000008000000000000006E
:102416000000001FE000003FF000003FF000001F3A
:10242600E0000180060003C00F0003C00F0003C0D8
:102436000F0003C00F0003C00F0003C00F0003C04E
:102446000F0003C00F00031FE300007FF800007FAA
:10245600FC00001FE0000300030003C00F0003C0E0
:102466000F0003C00F0003C00F0003C00F0003C01E
:102476000F0003C00F0003C00F0001800600001FFD
:10248600E000003FF000003FF000001FE000000009
:102496000000001FE000003FF000003FF000001FBA
:1024A600E0000180060003C00F0003C00F0003C058
:1024B6000F0003C00F0003C00F0003C00F0003C0CE
:1024C6000F0003C00F00031FE300007FF800007F2A
:1024D600FC00001FE0000000030000000F000000E9
:1024E6000F0000000F0000000F0000000F000000AA
:1024F6000F0000000F0000000F0000000600001F84
:10250600E000003FF000007FF00000FFE000000068
:1025160000000000000000000000000000000000B5
:1025260000000000000000000000000000000000A5
:102536000000000000000000000000000000000095
:102546000000000000000000000000000000000085
:102556000000000000000000000000000000000075
:102566000000007800000078000000780000007885
:102576000000007800000078000000000000000065
:102586000000000000000000000000000000000045
:102596000000000000000000000000000000000035
:1025A600000000000000000000000000000000071E
:1025B6000000000F8000000F8000000F8000000761
:1025C6000000000000000000000000000000000005
:1025D6000000000000000000000000070000000FDF
:1025E6008000000F8000000F800000070000000040
:1025F60000000000000000000000000000000000D5
:1026060000000000000000000000000000000000C4
:10261600000000000000000000000000000007C0ED
:1026260006000FE0060000000C00301818003018F5
:1026360018003018300030183000301860003008AC
:10264600C00007C0C0000FE08000000000000000CE
:102656000FE0000607C000063018000C3018000C0A
:10266600301800183018003030180030301800606C
:10267600000000C00FE000C007C00000000000001E
:102686000000000000000000000000000000000044
:102696000000000000000000000000000000000034
:1026A6000000000000000700E0000887FC00088E1C
:1026B60003000898018007180080003000000030F1
:1026C6000000007000000060000000600000006074
:1026D6000000006000000060000000700000003094
:1026E6000000003000000038000000180100000C57
:1026F60003000007FC000001F000000000000000DD
:1027060000000000000000000000000000000000C3
:1027160000000000000000000000000000000000B3
:1027260000000000000000000000000000000000A3
:102736000000000000000000000000000000000093
:1027460000000000000000000000003FF000007FD5
:10275600F000007FE00000FFC00000000000000065
:102766000000000000000000000000000000000063
:102776000000000000000000000000000000000053
:10278600000000000000000000000000000000C97A
:10279600C100200017F80008400842084208420815
:1027A600450848885048400840084008401800003E
:1027B6000000D2AB0023B82888AAA8719822A8F9ED
:1027C6004053F8562053F8522053F85A2053F882B3
:1027D6000000000000B5E7000200020002007FF0E2
:1027E600421042107FF0421042107FF04200020871
:1027F600020801F800000000D7D3007FF000200097
:1028060040008001000200FFF80200020002000200
:1028160000020002000E0000000000BFC6000020FB
:102826000D2070A010A01220FD20112030383BE0B2
:102836005420902010201020102000000000BCBC66
:1028460000208020802080F7F02080208027E03242
:1028560020E2202140208021402220EC18000000A8
:1028660000D2BA000080404027F81140014082782B
:10287600424816A81AD023502220422042500288ED
:1028860000000000BEA7003FE020203FE020203FE0
:10289600E00000FDF885088508FDF885088508FD37
:1028A600F8850800000000B2E20000084F8828887A
:1028B6000AA88AA84AA80AA82AA82AA8422845082F
:1028C60084888888103800000000CAD40040502050
:1028D6004820400FF80040E0402740224022402296
:1028E600202A2833A82E18000800000000B3CC00C8
:1028F60000001BF0E210221023F0F800200033F055
:1029060068806080A3F02080208027F80000000007
:10291600D0F200020001003FF820002FF020202214
:102926004021803FF82088209040804080838000AE
:10293600000000D1D500200010F87E20444028F881
:102946007E8848A850A864A848A872A88450188809
:10295600610800000000C9AB00100010003FE04015
:102966004080807FF04210421042107FF0400040CD
:102976000840083FF800000000CCEE0020802FF849
:10298600208027F0F41027F0241027F0241027F0D9
:102996003410CFF80220041000000000B3E4000455
:1029A600000200FFF80800104020207FF008900881
:1029B600800880088010882088C07800000000CE3B
:1029C600C400040002000200FFF810401040088016
:1029D600088005000200050008803060C01800006D
:1029E6000000D7D60004000200FFF8800880083FE8
:1029F600C0008001000200FFF80200020002000E83
:102A06000000000000CFD4003FE0202020203FE05F
:102A1600202020203FE008804890289028A00880A9
:102A26000880FFF800000000CABE0000003FE0007A
:102A36000000000000FFF80200124012202210429F
:102A460008820802000E0000000000CDBC007FF8DE
:102A56004008440847C84848548843084CC8733857
:102A660040884C08430840887FF800000000C6AC48
:102A76000000802080208020803FF0200020002061
:102A8600003FC020402040204040408040000000E1
:102A960000B4A50020403840484091F07D50555084
:102AA60055507D5055F054407C40545057F88C0892
:102AB60000000000C3FE002220222027F8FA20276B
:102AC600F0241027F03410E7F020802FF821402260
:102AD60020EC1800000000CAE40040804140F220CB
:102AE60044108BE8A000F78824A827A834A8E7A8F4
:102AF60024A8248825B800000000C8EB00080004BC
:102B0600000400020002000500050008800880108D
:102B160040104020204010800800000000C8AB0094
:102B2600020002000500088010402020DFD80200C5
:102B360002001FC0020002000200FFF800000000B1
:102B4600B3CC0000001BF0E210221023F0F80020A6
:102B56000033F068806080A3F02080208027F80092
:102B6600000000BCBC00208020802080F7F0208080
:102B7600208027E03220E2202140208021402220B0
:102B8600EC1800000000CAF5000200024002200214
:102B960000FFF807000A800A8012402220421082B5
:102BA600080200020000000000D6A7000200020092
:102BB600FFF8020002007FE01020104008800500A8
:102BC6000200050018C0E03800000000B3D600205F
:102BD60080208023F0F880208027F828203020E706
:102BE600F82020222021202020E0E000000000D74D
:102BF600A800020002007FF004000400FFF80800AD
:102C060010003FE0002000401C8003000080000010
:102C16000000D7A20001004080200017F00080804D
:102C2600804080008017F010802080208040804FF8
:102C3600F800000000C5FA00204024402440F44873
:102C46002450276024403440E44024402440254852
:102C56002648E43800000000B7A200020022202225
:102C66001044007FF8040008000FE01420244042BE
:102C760080810006C0383800000000B3C90000A0FB
:102C8600009000807FF8408040907C90449044A063
:102C960044A0444858A84118820800000000B9A67C
:102CA6000001000100F90023F0211021102110215C
:102CB6001021103910C21002100410086000000024
:102CC60000D2C6000000002000780CE479045168A8
:102CD60010307E6019981A3C2FE448E4083800301A
:102CE60000600000B6AF000000001000183E101E85
:102CF60010007C00A67E2278422042264422843E92
:102D06008C008800900000D1A10000000120012065
:102D160003FC62203420042003FC240021B021207F
:102D26002220323E18000FE00000D4F1000000001F
:102D36000010FC1304110C3DF8703E10D015907C69
:102D4600F0503E18101BFE023000200000CFEE00AF
:102D56000000000003FE00607C4012FC1104110616
:102D6600113611241F44794400C0009C01860000DE
:102D7600C4BF00000000000FE03C18200820043EFD
:102D860004600460047E046004200C20081FF00127
:102D9600800000B6CC000000080011FC103E3EF892
:102DA6002D8C2904490409043E8C50FC10881EC849
:102DB60011FC100E0000B0B40000000040006012CC
:102DC600FE13023A427F4410C41BFE3C98719011D8
:102DD6003011A00078004C0000C8B7000000004089
:102DE60000F878C41F8C313821EC2126413A7DE267
:102DF600272225FA3D26012401040000B6A800007A
:102E060000010001705FFC700420042FF80100111E
:102E160000113821C431003F0063E040380000B3A0
:102E2600A400000000000818086008C00B001E007F
:102E3600181C7FF01000118010E01838098E0F0062
:102E46000000B0B40000000040006012FE13023A19
:102E5600427F4410C41BFE3C987190113011A000B3
:102E660078004C0000B7B5000000000007F8060027
:102E7600240014F8078C04042408261825F0647C22
:102E860064C220801FC00000BBD800000000001FE5
:102E9600F030182008278C2C44284428442CC427BA
:102EA600842004300C1FF803800000CEC40002000A
:102EB60001000100FFFE1010101008200820044039
:102EC600028001000280044008203018C006D7D6D0
:102ED60000020001007FFE400280041FE000400067
:102EE600800100FFFE010001000100010005000253
:102EF60000CFD40000001FF0101010101FF01010AB
:102F060010101FF004404444244414481450044054
:102F1600FFFE0000CABE0000003FF80000000000EF
:102F2600000000FFFE0100010011101108210441FC
:102F360002810205000200B2E200000427C4144424
:102F46001454855445544554155415542554E55484
:102F560021042284224424140808CAD4000028200C
:102F6600241024102007FE0020F02017E011201165
:102F7600101110151019CA170A02060002C8AB0074
:102F86000100010002800440082010102FE8C1064D
:102F9600010001001FF00100010001007FFC00009C
:102FA600B6AF00004000407C40004001FC0044FEFB
:102FB6004420442044208448844484FD044504027B
:102FC600280410B5E7000100010001003FF82108C0
:102FD600210821083FF82108210821083FF8210A85
:102FE6000102010200FED7D30000007FF8001000A6
:102FF60020004001800100FFFE01000100010001E8
:10300600000100010005000200BCBC0010201020D9
:10301600102013FEFC201020102015FC1884308888
:10302600D04810501020105051882606CAF50001CD
:10303600000120011001107FFC03800540054009B6
:10304600201110210841048102010001000100C97C
:10305600CC00020001007FFC082004403FF8200855
:103066002448282837D82448244827C82008202858
:103076002010B3C70020282024202027FE2420FC6F
:1030860020242427A424A424A824A83C90E692491A
:103096002A08461082D2F20000007FFC4004410458
:1030A600410441045FF441044284424444244814E8
:1030B600501440047FFC4004CEAA000100210011F8
:1030C60000110001007FF802080208028804480483
:1030D6004808081008200840508020D7A8000100A2
:1030E600010001003FF802000200FFFE0400080094
:1030F6000FF0001000200640018000400020D7A2FB
:103106000000802040100017FC80404040404010E6
:103116004013FC2040E0402040204020402FFE008D
:1031260000CBF9000208071C38E0208020803E8092
:1031360022FE228822883E8820882088410841086D
:1031460082080408D2D40000100410221021102195
:10315600102010201020202020202024402850302D
:1031660088210402020402D2B5000440044004404F
:103176000440444424442448144814501460044031
:10318600044004400440FFFE0000B3CC0008001DCC
:10319600FCF10411041104FDFC1000300039FE544A
:1031A60020542091FC1020102013FE1000D6A700FA
:1031B6000100010001007FFC0100010001003FF059
:1031C6001010082004400280010006C01830E00EEE
:1031D600B3D60010201020102011FC7C20102013E4
:1031E600FE1008180833FE500810881048100850C2
:1031F600282010D3D00004000400FFF808001FE0C8
:10320600302050209FE0102010201FE010201020BA
:1032160010E000000000CFDE0000007BF04A104AFC
:103226001053F052104A104BF04A484A507220424E
:10323600A04310420800000000B9AB0001000900DD
:1032460008801080104020204410840808000900DF
:10325600108020407FE0002000000000CBBE007FF1
:10326600F000100010FFD0001000107F904090403A
:103276009040907F9040100010007000000000BD4C
:10328600BB00020001000100FFFE00001010100844
:103296002024482404400280010002800C40303083
:1032A600C00EC1F7000080204017FE1080011042BA
:1032B6000847FC100410002248624822482248228F
:1032C6004A244A0846C8BA0000827E44122812FEE2
:1032D6007F10121012107E7C201020107E1062FECD
:1032E600221022103E1022100000000000000000F4
:1032F60000000000000000000000000000000000C8
:0C330600000000000000000000000000BB
:00000001FF
